{
  "_format": "hh-sol-artifact-1",
  "contractName": "NushuProtocol",
  "sourceName": "contracts/NushuProtocol.sol",
  "abi": [
    {
      "anonymous": false,
      "inputs": [
        {
          "indexed": true,
          "internalType": "address",
          "name": "user",
          "type": "address"
        },
        {
          "indexed": false,
          "internalType": "uint256",
          "name": "amount",
          "type": "uint256"
        }
      ],
      "name": "PointsClaimed",
      "type": "event"
    },
    {
      "anonymous": false,
      "inputs": [
        {
          "indexed": true,
          "internalType": "address",
          "name": "user",
          "type": "address"
        },
        {
          "indexed": false,
          "internalType": "uint256",
          "name": "ethAmount",
          "type": "uint256"
        },
        {
          "indexed": false,
          "internalType": "uint256",
          "name": "pointsAmount",
          "type": "uint256"
        }
      ],
      "name": "PointsPurchased",
      "type": "event"
    },
    {
      "anonymous": false,
      "inputs": [
        {
          "indexed": true,
          "internalType": "address",
          "name": "user",
          "type": "address"
        },
        {
          "indexed": false,
          "internalType": "uint256",
          "name": "requestId",
          "type": "uint256"
        },
        {
          "indexed": false,
          "internalType": "string",
          "name": "imageUrl",
          "type": "string"
        }
      ],
      "name": "TranslationRequested",
      "type": "event"
    },
    {
      "inputs": [],
      "name": "INITIAL_POINTS",
      "outputs": [
        {
          "internalType": "uint256",
          "name": "",
          "type": "uint256"
        }
      ],
      "stateMutability": "view",
      "type": "function"
    },
    {
      "inputs": [],
      "name": "POINTS_PER_ETH",
      "outputs": [
        {
          "internalType": "uint256",
          "name": "",
          "type": "uint256"
        }
      ],
      "stateMutability": "view",
      "type": "function"
    },
    {
      "inputs": [],
      "name": "SERVICE_COST",
      "outputs": [
        {
          "internalType": "uint256",
          "name": "",
          "type": "uint256"
        }
      ],
      "stateMutability": "view",
      "type": "function"
    },
    {
      "inputs": [],
      "name": "buyPoints",
      "outputs": [],
      "stateMutability": "payable",
      "type": "function"
    },
    {
      "inputs": [],
      "name": "claimInitialPoints",
      "outputs": [],
      "stateMutability": "nonpayable",
      "type": "function"
    },
    {
      "inputs": [
        {
          "internalType": "address",
          "name": "user",
          "type": "address"
        }
      ],
      "name": "getUserPoints",
      "outputs": [
        {
          "internalType": "uint256",
          "name": "",
          "type": "uint256"
        }
      ],
      "stateMutability": "view",
      "type": "function"
    },
    {
      "inputs": [
        {
          "internalType": "address",
          "name": "user",
          "type": "address"
        }
      ],
      "name": "points",
      "outputs": [
        {
          "internalType": "uint256",
          "name": "",
          "type": "uint256"
        }
      ],
      "stateMutability": "view",
      "type": "function"
    },
    {
      "inputs": [
        {
          "internalType": "uint256",
          "name": "requestId",
          "type": "uint256"
        },
        {
          "internalType": "string",
          "name": "imageUrl",
          "type": "string"
        }
      ],
      "name": "useService",
      "outputs": [],
      "stateMutability": "nonpayable",
      "type": "function"
    }
  ],
  "bytecode": "0x608060405234801561001057600080fd5b50610c94806100206000396000f3fe60806040526004361061007b5760003560e01c8063a5f98cde1161004e578063a5f98cde14610107578063aeefe31f14610132578063c99a340f1461016f578063cb9f75d01461019a5761007b565b8063358b81661461008057806336ed74a9146100bd57806381635b3f146100e65780639a8667ab146100f0575b600080fd5b34801561008c57600080fd5b506100a760048036038101906100a291906107d6565b6101c5565b6040516100b4919061081c565b60405180910390f35b3480156100c957600080fd5b506100e460048036038101906100df91906108c8565b61020d565b005b6100ee610416565b005b3480156100fc57600080fd5b50610105610600565b005b34801561011357600080fd5b5061011c610716565b604051610129919061081c565b60405180910390f35b34801561013e57600080fd5b50610159600480360381019061015491906107d6565b61071b565b604051610166919061081c565b60405180910390f35b34801561017b57600080fd5b50610184610763565b604051610191919061081c565b60405180910390f35b3480156101a657600080fd5b506101af610769565b6040516101bc919061081c565b60405180910390f35b60008060008373ffffffffffffffffffffffffffffffffffffffff1673ffffffffffffffffffffffffffffffffffffffff168152602001908152602001600020549050919050565b60008060003373ffffffffffffffffffffffffffffffffffffffff1673ffffffffffffffffffffffffffffffffffffffff16815260200190815260200160002054036102e75760326000803373ffffffffffffffffffffffffffffffffffffffff1673ffffffffffffffffffffffffffffffffffffffff168152602001908152602001600020819055503373ffffffffffffffffffffffffffffffffffffffff167fba953728785de35be3827ee7a7a7867a8472947562602939440e6c0bdbf4725e60326040516102de919061081c565b60405180910390a25b60056000803373ffffffffffffffffffffffffffffffffffffffff1673ffffffffffffffffffffffffffffffffffffffff168152602001908152602001600020541015610369576040517f08c379a000000000000000000000000000000000000000000000000000000000815260040161036090610985565b60405180910390fd5b60056000803373ffffffffffffffffffffffffffffffffffffffff1673ffffffffffffffffffffffffffffffffffffffff16815260200190815260200160002060008282546103b891906109d4565b925050819055503373ffffffffffffffffffffffffffffffffffffffff167f199082953eebf1b4efc4bdc9f516c585a9d3b18b571ebdd91d8416d01e62b13584848460405161040993929190610a55565b60405180910390a2505050565b60003411610459576040517f08c379a000000000000000000000000000000000000000000000000000000000815260040161045090610ad3565b60405180910390fd5b60008060003373ffffffffffffffffffffffffffffffffffffffff1673ffffffffffffffffffffffffffffffffffffffff16815260200190815260200160002054036105335760326000803373ffffffffffffffffffffffffffffffffffffffff1673ffffffffffffffffffffffffffffffffffffffff168152602001908152602001600020819055503373ffffffffffffffffffffffffffffffffffffffff167fba953728785de35be3827ee7a7a7867a8472947562602939440e6c0bdbf4725e603260405161052a919061081c565b60405180910390a25b6000670de0b6b3a76400006127103461054c9190610af3565b6105569190610b64565b9050806000803373ffffffffffffffffffffffffffffffffffffffff1673ffffffffffffffffffffffffffffffffffffffff16815260200190815260200160002060008282546105a69190610b95565b925050819055503373ffffffffffffffffffffffffffffffffffffffff167fce6b1046e930fade6762318ce64737ca5e0c856242872b6c56d9dc5180fd12c434836040516105f5929190610bc9565b60405180910390a250565b60008060003373ffffffffffffffffffffffffffffffffffffffff1673ffffffffffffffffffffffffffffffffffffffff1681526020019081526020016000205414610681576040517f08c379a000000000000000000000000000000000000000000000000000000000815260040161067890610c3e565b60405180910390fd5b60326000803373ffffffffffffffffffffffffffffffffffffffff1673ffffffffffffffffffffffffffffffffffffffff168152602001908152602001600020819055503373ffffffffffffffffffffffffffffffffffffffff167fba953728785de35be3827ee7a7a7867a8472947562602939440e6c0bdbf4725e603260405161070c919061081c565b60405180910390a2565b603281565b60008060008373ffffffffffffffffffffffffffffffffffffffff1673ffffffffffffffffffffffffffffffffffffffff168152602001908152602001600020549050919050565b61271081565b600581565b600080fd5b600080fd5b600073ffffffffffffffffffffffffffffffffffffffff82169050919050565b60006107a382610778565b9050919050565b6107b381610798565b81146107be57600080fd5b50565b6000813590506107d0816107aa565b92915050565b6000602082840312156107ec576107eb61076e565b5b60006107fa848285016107c1565b91505092915050565b6000819050919050565b61081681610803565b82525050565b6000602082019050610831600083018461080d565b92915050565b61084081610803565b811461084b57600080fd5b50565b60008135905061085d81610837565b92915050565b600080fd5b600080fd5b600080fd5b60008083601f84011261088857610887610863565b5b8235905067ffffffffffffffff8111156108a5576108a4610868565b5b6020830191508360018202830111156108c1576108c061086d565b5b9250929050565b6000806000604084860312156108e1576108e061076e565b5b60006108ef8682870161084e565b935050602084013567ffffffffffffffff8111156109105761090f610773565b5b61091c86828701610872565b92509250509250925092565b600082825260208201905092915050565b7f496e73756666696369656e7420706f696e747300000000000000000000000000600082015250565b600061096f601383610928565b915061097a82610939565b602082019050919050565b6000602082019050818103600083015261099e81610962565b9050919050565b7f4e487b7100000000000000000000000000000000000000000000000000000000600052601160045260246000fd5b60006109df82610803565b91506109ea83610803565b9250828203905081811115610a0257610a016109a5565b5b92915050565b82818337600083830152505050565b6000601f19601f8301169050919050565b6000610a348385610928565b9350610a41838584610a08565b610a4a83610a17565b840190509392505050565b6000604082019050610a6a600083018661080d565b8181036020830152610a7d818486610a28565b9050949350505050565b7f4d7573742073656e642045544820746f2062757920706f696e74730000000000600082015250565b6000610abd601b83610928565b9150610ac882610a87565b602082019050919050565b60006020820190508181036000830152610aec81610ab0565b9050919050565b6000610afe82610803565b9150610b0983610803565b9250828202610b1781610803565b91508282048414831517610b2e57610b2d6109a5565b5b5092915050565b7f4e487b7100000000000000000000000000000000000000000000000000000000600052601260045260246000fd5b6000610b6f82610803565b9150610b7a83610803565b925082610b8a57610b89610b35565b5b828204905092915050565b6000610ba082610803565b9150610bab83610803565b9250828201905080821115610bc357610bc26109a5565b5b92915050565b6000604082019050610bde600083018561080d565b610beb602083018461080d565b9392505050565b7f416c726561647920636c61696d656420696e697469616c20706f696e74730000600082015250565b6000610c28601e83610928565b9150610c3382610bf2565b602082019050919050565b60006020820190508181036000830152610c5781610c1b565b905091905056fea26469706673582212200bebe83bac22e1a6f26652ffe7f7dd7d85ebf60e4f11f1ab60f24f4d2043c64564736f6c63430008180033",
  "linkReferences": {},
  "deployedLinkReferences": {}
}