{"abi":[{"type":"function","name":"GUARDIAN_SIGNATURE_TYPEHASH","inputs":[],"outputs":[{"name":"","type":"bytes32","internalType":"bytes32"}],"stateMutability":"view"},{"type":"function","name":"MAX_EMERGENCY_TIMELOCK","inputs":[],"outputs":[{"name":"","type":"uint256","internalType":"uint256"}],"stateMutability":"view"},{"type":"function","name":"MAX_GRACE_PERIOD","inputs":[],"outputs":[{"name":"","type":"uint256","internalType":"uint256"}],"stateMutability":"view"},{"type":"function","name":"MAX_GUARDIANS","inputs":[],"outputs":[{"name":"","type":"uint256","internalType":"uint256"}],"stateMutability":"view"},{"type":"function","name":"MAX_GUARDIAN_CHANGE_TIMELOCK","inputs":[],"outputs":[{"name":"","type":"uint256","internalType":"uint256"}],"stateMutability":"view"},{"type":"function","name":"MAX_TIMELOCK_PERIOD","inputs":[],"outputs":[{"name":"","type":"uint256","internalType":"uint256"}],"stateMutability":"view"},{"type":"function","name":"MIN_EMERGENCY_TIMELOCK","inputs":[],"outputs":[{"name":"","type":"uint256","internalType":"uint256"}],"stateMutability":"view"},{"type":"function","name":"MIN_GRACE_PERIOD","inputs":[],"outputs":[{"name":"","type":"uint256","internalType":"uint256"}],"stateMutability":"view"},{"type":"function","name":"MIN_GUARDIAN_CHANGE_TIMELOCK","inputs":[],"outputs":[{"name":"","type":"uint256","internalType":"uint256"}],"stateMutability":"view"},{"type":"function","name":"MIN_TIMELOCK_PERIOD","inputs":[],"outputs":[{"name":"","type":"uint256","internalType":"uint256"}],"stateMutability":"view"},{"type":"function","name":"OWNER_RESPONSE_GRACE_PERIOD","inputs":[],"outputs":[{"name":"","type":"uint256","internalType":"uint256"}],"stateMutability":"view"},{"type":"function","name":"PAYMENT_REQUEST_TYPEHASH","inputs":[],"outputs":[{"name":"","type":"bytes32","internalType":"bytes32"}],"stateMutability":"view"},{"type":"function","name":"UPGRADE_INTERFACE_VERSION","inputs":[],"outputs":[{"name":"","type":"string","internalType":"string"}],"stateMutability":"view"},{"type":"function","name":"VERSION","inputs":[],"outputs":[{"name":"","type":"string","internalType":"string"}],"stateMutability":"view"},{"type":"function","name":"acknowledgeResolution","inputs":[],"outputs":[],"stateMutability":"nonpayable"},{"type":"function","name":"activateEmergency","inputs":[{"name":"proposalId","type":"uint256","internalType":"uint256"},{"name":"activationProof","type":"bytes","internalType":"bytes"}],"outputs":[],"stateMutability":"nonpayable"},{"type":"function","name":"activeProposalId","inputs":[],"outputs":[{"name":"","type":"uint256","internalType":"uint256"}],"stateMutability":"view"},{"type":"function","name":"adjustTimelockForRisk","inputs":[{"name":"user","type":"address","internalType":"address"},{"name":"riskScore","type":"uint256","internalType":"uint256"}],"outputs":[{"name":"adjustedTimelock","type":"uint256","internalType":"uint256"}],"stateMutability":"view"},{"type":"function","name":"cancelEmergencyProposal","inputs":[{"name":"proposalId","type":"uint256","internalType":"uint256"}],"outputs":[],"stateMutability":"nonpayable"},{"type":"function","name":"checkAndAutoEscalate","inputs":[{"name":"escalationProof","type":"bytes","internalType":"bytes"}],"outputs":[],"stateMutability":"nonpayable"},{"type":"function","name":"currentEmergencyLevel","inputs":[],"outputs":[{"name":"","type":"uint8","internalType":"enum IEmergencyManagement.EmergencyLevel"}],"stateMutability":"view"},{"type":"function","name":"eip712Domain","inputs":[],"outputs":[{"name":"fields","type":"bytes1","internalType":"bytes1"},{"name":"name","type":"string","internalType":"string"},{"name":"version","type":"string","internalType":"string"},{"name":"chainId","type":"uint256","internalType":"uint256"},{"name":"verifyingContract","type":"address","internalType":"address"},{"name":"salt","type":"bytes32","internalType":"bytes32"},{"name":"extensions","type":"uint256[]","internalType":"uint256[]"}],"stateMutability":"view"},{"type":"function","name":"emergencyActivatedAt","inputs":[],"outputs":[{"name":"","type":"uint256","internalType":"uint256"}],"stateMutability":"view"},{"type":"function","name":"emergencyDataStorage","inputs":[],"outputs":[{"name":"","type":"address","internalType":"contract IEmergencyDataStorage"}],"stateMutability":"view"},{"type":"function","name":"emergencyProposalTimelock","inputs":[],"outputs":[{"name":"","type":"uint256","internalType":"uint256"}],"stateMutability":"view"},{"type":"function","name":"emergencyProposals","inputs":[{"name":"","type":"uint256","internalType":"uint256"}],"outputs":[{"name":"proposalId","type":"uint256","internalType":"uint256"},{"name":"proposer","type":"address","internalType":"address"},{"name":"evidence","type":"bytes","internalType":"bytes"},{"name":"evidenceHash","type":"bytes32","internalType":"bytes32"},{"name":"proposedAt","type":"uint256","internalType":"uint256"},{"name":"timelock","type":"uint256","internalType":"uint256"},{"name":"status","type":"uint8","internalType":"enum IEmergencyManagement.ProposalStatus"},{"name":"targetLevel","type":"uint8","internalType":"enum IEmergencyManagement.EmergencyLevel"},{"name":"zkProof","type":"bytes","internalType":"bytes"}],"stateMutability":"view"},{"type":"function","name":"executeGuardianChange","inputs":[{"name":"newGuardians","type":"address[]","internalType":"address[]"},{"name":"newThresholds","type":"uint256[3]","internalType":"uint256[3]"},{"name":"","type":"bytes32","internalType":"bytes32"}],"outputs":[],"stateMutability":"nonpayable"},{"type":"function","name":"executePaymentWithMultiSig","inputs":[{"name":"request","type":"tuple","internalType":"struct IEmergencyManagement.PaymentRequest","components":[{"name":"requestId","type":"bytes32","internalType":"bytes32"},{"name":"recipient","type":"address","internalType":"address"},{"name":"amount","type":"uint256","internalType":"uint256"},{"name":"purpose","type":"bytes32","internalType":"bytes32"},{"name":"deadline","type":"uint256","internalType":"uint256"},{"name":"requiredLevel","type":"uint8","internalType":"enum IEmergencyManagement.EmergencyLevel"},{"name":"executed","type":"bool","internalType":"bool"}]},{"name":"guardianSignatures","type":"bytes[]","internalType":"bytes[]"},{"name":"zkProofs","type":"bytes[]","internalType":"bytes[]"}],"outputs":[{"name":"success","type":"bool","internalType":"bool"}],"stateMutability":"nonpayable"},{"type":"function","name":"getCurrentEmergencyState","inputs":[],"outputs":[{"name":"level","type":"uint8","internalType":"enum IEmergencyManagement.EmergencyLevel"},{"name":"activatedAt","type":"uint256","internalType":"uint256"},{"name":"proposalId","type":"uint256","internalType":"uint256"}],"stateMutability":"view"},{"type":"function","name":"getEmergencyProposal","inputs":[{"name":"proposalId","type":"uint256","internalType":"uint256"}],"outputs":[{"name":"proposal","type":"tuple","internalType":"struct IEmergencyManagement.EmergencyProposal","components":[{"name":"proposalId","type":"uint256","internalType":"uint256"},{"name":"proposer","type":"address","internalType":"address"},{"name":"evidence","type":"bytes","internalType":"bytes"},{"name":"evidenceHash","type":"bytes32","internalType":"bytes32"},{"name":"proposedAt","type":"uint256","internalType":"uint256"},{"name":"timelock","type":"uint256","internalType":"uint256"},{"name":"status","type":"uint8","internalType":"enum IEmergencyManagement.ProposalStatus"},{"name":"targetLevel","type":"uint8","internalType":"enum IEmergencyManagement.EmergencyLevel"},{"name":"zkProof","type":"bytes","internalType":"bytes"}]}],"stateMutability":"view"},{"type":"function","name":"getGuardianConfig","inputs":[],"outputs":[{"name":"config","type":"tuple","internalType":"struct IEmergencyManagement.GuardianConfig","components":[{"name":"guardians","type":"address[]","internalType":"address[]"},{"name":"requiredApprovalsForLevel1","type":"uint256","internalType":"uint256"},{"name":"requiredApprovalsForLevel2","type":"uint256","internalType":"uint256"},{"name":"requiredApprovalsForLevel3","type":"uint256","internalType":"uint256"},{"name":"lastUpdated","type":"uint256","internalType":"uint256"},{"name":"changeProposalHash","type":"bytes32","internalType":"bytes32"}]}],"stateMutability":"view"},{"type":"function","name":"getLevelSpecificTimelock","inputs":[{"name":"user","type":"address","internalType":"address"},{"name":"level","type":"uint8","internalType":"enum IEmergencyManagement.EmergencyLevel"}],"outputs":[{"name":"timelock","type":"uint256","internalType":"uint256"}],"stateMutability":"view"},{"type":"function","name":"getUserTimelockConfig","inputs":[{"name":"user","type":"address","internalType":"address"}],"outputs":[{"name":"_emergencyTimelock","type":"uint256","internalType":"uint256"},{"name":"_guardianChangeTimelock","type":"uint256","internalType":"uint256"},{"name":"_gracePeriod","type":"uint256","internalType":"uint256"},{"name":"_dynamicAdjustmentEnabled","type":"bool","internalType":"bool"},{"name":"_lastUpdated","type":"uint256","internalType":"uint256"}],"stateMutability":"view"},{"type":"function","name":"getVersion","inputs":[],"outputs":[{"name":"","type":"string","internalType":"string"}],"stateMutability":"pure"},{"type":"function","name":"guardianChangeTimelock","inputs":[],"outputs":[{"name":"","type":"uint256","internalType":"uint256"}],"stateMutability":"view"},{"type":"function","name":"guardianConfig","inputs":[],"outputs":[{"name":"requiredApprovalsForLevel1","type":"uint256","internalType":"uint256"},{"name":"requiredApprovalsForLevel2","type":"uint256","internalType":"uint256"},{"name":"requiredApprovalsForLevel3","type":"uint256","internalType":"uint256"},{"name":"lastUpdated","type":"uint256","internalType":"uint256"},{"name":"changeProposalHash","type":"bytes32","internalType":"bytes32"}],"stateMutability":"view"},{"type":"function","name":"guardianNonces","inputs":[{"name":"","type":"address","internalType":"address"}],"outputs":[{"name":"","type":"uint256","internalType":"uint256"}],"stateMutability":"view"},{"type":"function","name":"initialize","inputs":[{"name":"_owner","type":"address","internalType":"address"},{"name":"_guardians","type":"address[]","internalType":"address[]"},{"name":"_thresholds","type":"uint256[3]","internalType":"uint256[3]"},{"name":"_zkProofVerifier","type":"address","internalType":"address"},{"name":"_emergencyDataStorage","type":"address","internalType":"address"}],"outputs":[],"stateMutability":"nonpayable"},{"type":"function","name":"isGuardian","inputs":[{"name":"guardian","type":"address","internalType":"address"}],"outputs":[{"name":"","type":"bool","internalType":"bool"}],"stateMutability":"view"},{"type":"function","name":"lastOwnerResponse","inputs":[],"outputs":[{"name":"","type":"uint256","internalType":"uint256"}],"stateMutability":"view"},{"type":"function","name":"levelDataCID","inputs":[{"name":"","type":"bytes32","internalType":"bytes32"}],"outputs":[{"name":"","type":"string","internalType":"string"}],"stateMutability":"view"},{"type":"function","name":"nextProposalId","inputs":[],"outputs":[{"name":"","type":"uint256","internalType":"uint256"}],"stateMutability":"view"},{"type":"function","name":"owner","inputs":[],"outputs":[{"name":"","type":"address","internalType":"address"}],"stateMutability":"view"},{"type":"function","name":"ownerResponseRequired","inputs":[],"outputs":[{"name":"","type":"bool","internalType":"bool"}],"stateMutability":"view"},{"type":"function","name":"paymentRequests","inputs":[{"name":"","type":"bytes32","internalType":"bytes32"}],"outputs":[{"name":"requestId","type":"bytes32","internalType":"bytes32"},{"name":"recipient","type":"address","internalType":"address"},{"name":"amount","type":"uint256","internalType":"uint256"},{"name":"purpose","type":"bytes32","internalType":"bytes32"},{"name":"deadline","type":"uint256","internalType":"uint256"},{"name":"requiredLevel","type":"uint8","internalType":"enum IEmergencyManagement.EmergencyLevel"},{"name":"executed","type":"bool","internalType":"bool"}],"stateMutability":"view"},{"type":"function","name":"proposeEmergency","inputs":[{"name":"evidence","type":"bytes","internalType":"bytes"},{"name":"evidenceHash","type":"bytes32","internalType":"bytes32"},{"name":"zkProof","type":"bytes","internalType":"bytes"}],"outputs":[{"name":"proposalId","type":"uint256","internalType":"uint256"}],"stateMutability":"nonpayable"},{"type":"function","name":"proposeGuardianChange","inputs":[{"name":"newGuardians","type":"address[]","internalType":"address[]"},{"name":"newThresholds","type":"uint256[3]","internalType":"uint256[3]"},{"name":"changeProof","type":"bytes","internalType":"bytes"}],"outputs":[{"name":"proposalHash","type":"bytes32","internalType":"bytes32"}],"stateMutability":"nonpayable"},{"type":"function","name":"proxiableUUID","inputs":[],"outputs":[{"name":"","type":"bytes32","internalType":"bytes32"}],"stateMutability":"view"},{"type":"function","name":"renounceOwnership","inputs":[],"outputs":[],"stateMutability":"nonpayable"},{"type":"function","name":"setDynamicTimelockAdjustment","inputs":[{"name":"enabled","type":"bool","internalType":"bool"}],"outputs":[],"stateMutability":"nonpayable"},{"type":"function","name":"setLevelSpecificTimelock","inputs":[{"name":"level","type":"uint8","internalType":"enum IEmergencyManagement.EmergencyLevel"},{"name":"timelock","type":"uint256","internalType":"uint256"}],"outputs":[],"stateMutability":"nonpayable"},{"type":"function","name":"storeEncryptedEmergencyData","inputs":[{"name":"ipfsHash","type":"string","internalType":"string"},{"name":"dataHash","type":"bytes32","internalType":"bytes32"},{"name":"zkProof","type":"bytes","internalType":"bytes"}],"outputs":[{"name":"dataId","type":"bytes32","internalType":"bytes32"}],"stateMutability":"nonpayable"},{"type":"function","name":"transferOwnership","inputs":[{"name":"newOwner","type":"address","internalType":"address"}],"outputs":[],"stateMutability":"nonpayable"},{"type":"function","name":"updateTimelockConfig","inputs":[{"name":"_emergencyTimelock","type":"uint256","internalType":"uint256"},{"name":"_guardianChangeTimelock","type":"uint256","internalType":"uint256"},{"name":"_gracePeriod","type":"uint256","internalType":"uint256"}],"outputs":[],"stateMutability":"nonpayable"},{"type":"function","name":"upgradeToAndCall","inputs":[{"name":"newImplementation","type":"address","internalType":"address"},{"name":"data","type":"bytes","internalType":"bytes"}],"outputs":[],"stateMutability":"payable"},{"type":"function","name":"userTimelockConfigs","inputs":[{"name":"","type":"address","internalType":"address"}],"outputs":[{"name":"emergencyTimelock","type":"uint256","internalType":"uint256"},{"name":"guardianChangeTimelock","type":"uint256","internalType":"uint256"},{"name":"gracePeriod","type":"uint256","internalType":"uint256"},{"name":"dynamicAdjustmentEnabled","type":"bool","internalType":"bool"},{"name":"lastUpdated","type":"uint256","internalType":"uint256"}],"stateMutability":"view"},{"type":"function","name":"validateGuardianZKProof","inputs":[{"name":"proof","type":"bytes","internalType":"bytes"},{"name":"guardianCommitment","type":"bytes32","internalType":"bytes32"},{"name":"guardian","type":"address","internalType":"address"}],"outputs":[{"name":"isValid","type":"bool","internalType":"bool"}],"stateMutability":"view"},{"type":"function","name":"verifyGuardianThreshold","inputs":[{"name":"signatures","type":"bytes[]","internalType":"bytes[]"},{"name":"messageHash","type":"bytes32","internalType":"bytes32"},{"name":"level","type":"uint8","internalType":"enum IEmergencyManagement.EmergencyLevel"}],"outputs":[{"name":"verified","type":"bool","internalType":"bool"},{"name":"validCount","type":"uint256","internalType":"uint256"}],"stateMutability":"view"},{"type":"function","name":"zkProofVerifier","inputs":[],"outputs":[{"name":"","type":"address","internalType":"contract IZKProofVerifier"}],"stateMutability":"view"},{"type":"event","name":"DynamicTimelockAdjustmentSet","inputs":[{"name":"user","type":"address","indexed":true,"internalType":"address"},{"name":"enabled","type":"bool","indexed":false,"internalType":"bool"}],"anonymous":false},{"type":"event","name":"EIP712DomainChanged","inputs":[],"anonymous":false},{"type":"event","name":"EmergencyActivated","inputs":[{"name":"proposalId","type":"uint256","indexed":true,"internalType":"uint256"},{"name":"level","type":"uint8","indexed":false,"internalType":"enum IEmergencyManagement.EmergencyLevel"},{"name":"activatedBy","type":"address","indexed":false,"internalType":"address"}],"anonymous":false},{"type":"event","name":"EmergencyDataStored","inputs":[{"name":"dataId","type":"bytes32","indexed":true,"internalType":"bytes32"},{"name":"ipfsHash","type":"string","indexed":false,"internalType":"string"},{"name":"owner","type":"address","indexed":true,"internalType":"address"}],"anonymous":false},{"type":"event","name":"EmergencyEscalated","inputs":[{"name":"fromLevel","type":"uint8","indexed":false,"internalType":"enum IEmergencyManagement.EmergencyLevel"},{"name":"toLevel","type":"uint8","indexed":false,"internalType":"enum IEmergencyManagement.EmergencyLevel"},{"name":"escalatedBy","type":"address","indexed":false,"internalType":"address"}],"anonymous":false},{"type":"event","name":"EmergencyProposed","inputs":[{"name":"proposalId","type":"uint256","indexed":true,"internalType":"uint256"},{"name":"proposer","type":"address","indexed":true,"internalType":"address"},{"name":"evidenceHash","type":"bytes32","indexed":false,"internalType":"bytes32"},{"name":"targetLevel","type":"uint8","indexed":false,"internalType":"enum IEmergencyManagement.EmergencyLevel"}],"anonymous":false},{"type":"event","name":"GuardianConfigChanged","inputs":[{"name":"newGuardians","type":"address[]","indexed":false,"internalType":"address[]"},{"name":"newThresholds","type":"uint256[3]","indexed":false,"internalType":"uint256[3]"},{"name":"changedBy","type":"address","indexed":false,"internalType":"address"}],"anonymous":false},{"type":"event","name":"Initialized","inputs":[{"name":"version","type":"uint64","indexed":false,"internalType":"uint64"}],"anonymous":false},{"type":"event","name":"LevelSpecificTimelockSet","inputs":[{"name":"user","type":"address","indexed":true,"internalType":"address"},{"name":"level","type":"uint8","indexed":false,"internalType":"enum IEmergencyManagement.EmergencyLevel"},{"name":"timelock","type":"uint256","indexed":false,"internalType":"uint256"}],"anonymous":false},{"type":"event","name":"OwnershipTransferred","inputs":[{"name":"previousOwner","type":"address","indexed":true,"internalType":"address"},{"name":"newOwner","type":"address","indexed":true,"internalType":"address"}],"anonymous":false},{"type":"event","name":"PaymentExecuted","inputs":[{"name":"requestId","type":"bytes32","indexed":true,"internalType":"bytes32"},{"name":"recipient","type":"address","indexed":true,"internalType":"address"},{"name":"amount","type":"uint256","indexed":false,"internalType":"uint256"},{"name":"validSignatures","type":"uint256","indexed":false,"internalType":"uint256"}],"anonymous":false},{"type":"event","name":"ResolutionAcknowledged","inputs":[{"name":"owner","type":"address","indexed":true,"internalType":"address"},{"name":"timestamp","type":"uint256","indexed":false,"internalType":"uint256"}],"anonymous":false},{"type":"event","name":"TimelockConfigUpdated","inputs":[{"name":"user","type":"address","indexed":true,"internalType":"address"},{"name":"emergencyTimelock","type":"uint256","indexed":false,"internalType":"uint256"},{"name":"guardianChangeTimelock","type":"uint256","indexed":false,"internalType":"uint256"},{"name":"gracePeriod","type":"uint256","indexed":false,"internalType":"uint256"}],"anonymous":false},{"type":"event","name":"Upgraded","inputs":[{"name":"implementation","type":"address","indexed":true,"internalType":"address"}],"anonymous":false},{"type":"error","name":"AddressEmptyCode","inputs":[{"name":"target","type":"address","internalType":"address"}]},{"type":"error","name":"ECDSAInvalidSignature","inputs":[]},{"type":"error","name":"ECDSAInvalidSignatureLength","inputs":[{"name":"length","type":"uint256","internalType":"uint256"}]},{"type":"error","name":"ECDSAInvalidSignatureS","inputs":[{"name":"s","type":"bytes32","internalType":"bytes32"}]},{"type":"error","name":"ERC1967InvalidImplementation","inputs":[{"name":"implementation","type":"address","internalType":"address"}]},{"type":"error","name":"ERC1967NonPayable","inputs":[]},{"type":"error","name":"FailedCall","inputs":[]},{"type":"error","name":"InsufficientSignatures","inputs":[{"name":"required","type":"uint256","internalType":"uint256"},{"name":"provided","type":"uint256","internalType":"uint256"}]},{"type":"error","name":"InvalidEmergencyLevel","inputs":[{"name":"required","type":"uint8","internalType":"enum IEmergencyManagement.EmergencyLevel"},{"name":"current","type":"uint8","internalType":"enum IEmergencyManagement.EmergencyLevel"}]},{"type":"error","name":"InvalidGuardianConfig","inputs":[{"name":"reason","type":"string","internalType":"string"}]},{"type":"error","name":"InvalidInitialization","inputs":[]},{"type":"error","name":"InvalidRiskScore","inputs":[{"name":"score","type":"uint256","internalType":"uint256"}]},{"type":"error","name":"InvalidTimelockPeriod","inputs":[{"name":"provided","type":"uint256","internalType":"uint256"},{"name":"min","type":"uint256","internalType":"uint256"},{"name":"max","type":"uint256","internalType":"uint256"}]},{"type":"error","name":"InvalidZKProof","inputs":[{"name":"proof","type":"bytes","internalType":"bytes"}]},{"type":"error","name":"NotInitializing","inputs":[]},{"type":"error","name":"OwnableInvalidOwner","inputs":[{"name":"owner","type":"address","internalType":"address"}]},{"type":"error","name":"OwnableUnauthorizedAccount","inputs":[{"name":"account","type":"address","internalType":"address"}]},{"type":"error","name":"ProposalNotFound","inputs":[{"name":"proposalId","type":"uint256","internalType":"uint256"}]},{"type":"error","name":"ReentrancyGuardReentrantCall","inputs":[]},{"type":"error","name":"TimelockNotExpired","inputs":[{"name":"proposalId","type":"uint256","internalType":"uint256"},{"name":"remainingTime","type":"uint256","internalType":"uint256"}]},{"type":"error","name":"UUPSUnauthorizedCallContext","inputs":[]},{"type":"error","name":"UUPSUnsupportedProxiableUUID","inputs":[{"name":"slot","type":"bytes32","internalType":"bytes32"}]},{"type":"error","name":"UnauthorizedCaller","inputs":[{"name":"caller","type":"address","internalType":"address"}]}],"bytecode":{"object":"0x60a0806040523460295730608052613f77908161002e82396080518181816118b401526119ae0152f35b5f80fdfe60806040526004361015610011575f80fd5b5f3560e01c80630536d83e14612ceb57806308b1637714612cce5780630966c1ee1461294e57806309b301ba146118135780630c68ba211461292b5780630d7a55ba146128a95780630d8e6e2c146102a25780631460a2ad146128595780631e049b661461281f57806321d294d6146127e557806322383d3e146126f15780632a37328c146126d45780632ab09d14146126b75780632beb449e1461268f5780633cc1ab37146124b95780633d63f2151461249c5780633f6476a714611c69578063422c1d3714611c4e57806345d70cfd14611b4f5780634661964914610d1b5780634e055edc14610d1b5780634e17edde14611b2a5780634f1ef2861461195f5780634ff7f54a14611942578063507039451461190857806352d1902d146118a25780636240dc1014611818578063638dddb41461181357806365c3969c146117e45780636a6b47d2146117a557806370f36e9e14611783578063715018a61461171c57806371ae90ef1461169b578063733e9aba1461166057806373767683146115b557806384b0196e146114ff578063883a0038146107425780638d1895c2146113d75780638da5cb5b146113a3578063930ed8e41461074257806394839cf3146110545780639dfeb24014610ebf578063a278b42b14610dad578063a618dfbd14610d84578063a81160c014610d67578063ad3cb1cc14610d20578063af191fca14610d1b578063b384a2b614610aa7578063b953f3d01461089f578063c18ba119146107b6578063d4b9a28214610747578063e725d43414610742578063eac43b4a1461070a578063ed2fdfc5146106ed578063f2fde38b146106c2578063f470687f14610649578063f4f90d7d14610336578063fe391491146102d95763ffa1ad74146102a2575f80fd5b346102d5575f3660031901126102d5576102d16102bd6132b9565b604051918291602083526020830190613106565b0390f35b5f80fd5b346102d55760603660031901126102d5576004356001600160401b0381116102d557610309903690600401613003565b6044356001600160a01b03811681036102d55760209261032c926024359161374b565b6040519015158152f35b346102d55761034436613030565b90929161034f613800565b610357613a5d565b6103c16020604051818101906953544f52455f4441544160b01b82528689602a83013761039583602a838a810189838201520301808452018261317e565b51902060018060a01b03603f54166040518080958194632a75286d60e11b8352338a8d60048601613406565b03915afa90811561055f575f9161061a575b50156105f35760405160208101903360601b82528487603483013761040a602060348388810142838201520301808452018261317e565b51902093845f52603e60205260405f20916001600160401b0385116105df5761043d8561043785546131e4565b85613355565b5f9285601f8111600114610575578061046d916020965f9161056a575b508160011b915f199060031b1c19161790565b90555b6104aa5f886104c760018060a01b03604054169460405198899788968795635eb9646f60e01b8752608060048801528d60848801916132f4565b9260248601528560448601526003198584030160648601526132f4565b03925af1801561055f5761052f575b50817ff594e2d322e418544ab4b220c365cefebdb2bcd40e25b1edbae05f2dad4ddc206105136020956040519182918883523396898401916132f4565b0390a360015f80516020613f3783398151915255604051908152f35b6020813d602011610557575b816105486020938361317e565b810103126102d55750816104d6565b3d915061053b565b6040513d5f823e3d90fd5b90508a01358b61045a565b505f81815260208120909487601f1981165b8b8189106105c2575060209750106105a9575b5050600186811b019055610470565b8901355f19600389901b60f8161c19169055888061059a565b830135845560209788019760019094019390920191899150610587565b634e487b7160e01b5f52604160045260245ffd5b60405163e1b34b8360e01b815260206004820152806106166024820185886132f4565b0390fd5b61063c915060203d602011610642575b610634818361317e565b8101906132dc565b866103d3565b503d61062a565b346102d55760203660031901126102d5576001600160a01b0361066a6130d2565b165f52604560205260405f2080546102d1600183015492600281015490600560ff60048301541691015491604051958695869192608093969594919660a0840197845260208401526040830152151560608201520152565b346102d55760203660031901126102d5576106eb6106de6130d2565b6106e6613800565b6136da565b005b346102d5575f3660031901126102d5576020604454604051908152f35b346102d55760203660031901126102d5576001600160a01b0361072b6130d2565b165f52603c602052602060405f2054604051908152f35b61329d565b346102d55760203660031901126102d5576004358015158091036102d557335f52604560205260405f206004810160ff1981541660ff84161790556005429101556040519081527ff8fd7c7f229132be911b31740770b8913e4807669321c74b0dbd232abc80f7af60203392a2005b346102d55760203660031901126102d5576004355f52603460205260405f2080546102d160018060a01b0360018401541692600760405191610806836107ff816002850161321c565b038461317e565b600381015492600482015460058301549061086560068501549361084560ff8087169660081c169661083e604051809a81930161321c565b038861317e565b6040519a8b9a8b5260208b015261012060408b01526101208a0190613106565b956060890152608088015260a087015261087e816130e8565b60c086015261088c816130e8565b60e0850152838203610100850152613106565b346102d55760a03660031901126102d5576004356001600160401b0381116102d5576108cf903690600401613085565b90366084116102d5576108e0613800565b603a546040516020810190610909816108fb858888876133e0565b03601f19810183528261317e565b519020603b5403610a6857335f908152604560205260409020600101548015610a5f575b610937818361338f565b4210610a355750506001600160401b0382116105df57600160401b82116105df5760365482603655808310610a07575b50809160365f525f5b8181106109df577f3471d67bacb869982393e73e25ed1af61196197b8cbdfa805a6d1dbb5c476a77838360243560375560443560385560643560395542603a555f603b556109cb60405192839260a0845260a084019161339c565b6060602460208401373360808301520390a1005b60019060206109ed8661357c565b950194815f80516020613e97833981519152015501610970565b610a2f905f80516020613e9783398151915201835f80516020613e978339815191520161333f565b82610967565b90610a44610a4992429261338f565b613559565b63126b74dd60e11b5f525f60045260245260445ffd5b5060475461092d565b604051636ab64c3b60e01b81526020600482015260166024820152750a0e4dee0dee6c2d840d0c2e6d040dad2e6dac2e8c6d60531b6044820152606490fd5b346102d55760403660031901126102d5576004356024356001600160401b0381116102d557610ada903690600401613003565b610ae3336134ad565b1580610cfa575b610ce757825f52603460205260405f205415610cd457610b08613a5d565b825f52603460205260405f206005810154804210610cb257506006019182549160ff8316610b35816130e8565b610c8c57610ba76020604051818101907141435449564154455f454d455247454e435960701b82528860328201523360601b605282015260468152610b7b60668261317e565b51902060018060a01b03603f54166040518080958194632a75286d60e11b835233898b60048601613406565b03915afa90811561055f575f91610c6d575b5015610c4957847fcc516de49c6662aa43003a9f3748a540afb4efe36fda8ffb23757eeff41d3368604060ff87816002898219161780835560081c16610bfe816130e8565b8219603154161760315584603355426032556001821960425416176042555460081c16815190610c2d816130e8565b8152336020820152a260015f80516020613f3783398151915255005b61061660405192839263e1b34b8360e01b84526020600485015260248401916132f4565b610c86915060203d60201161064257610634818361317e565b86610bb9565b603154631607535960e31b5f90815260045260ff16610caa816130e8565b60245260445ffd5b610cbe85914290613559565b9063126b74dd60e11b5f5260045260245260445ffd5b8263428d06a960e01b5f5260045260245ffd5b63d86ad9cf60e01b5f523360045260245ffd5b505f80516020613ed7833981519152546001600160a01b0316331415610aea565b61312a565b346102d5575f3660031901126102d5576102d1604051610d4160408261317e565b60058152640352e302e360dc1b6020820152604051918291602083526020830190613106565b346102d5575f3660031901126102d5576020603354604051908152f35b346102d5575f3660031901126102d557602060ff6031541660405190610da9816130e8565b8152f35b346102d55760403660031901126102d55760043560048110156102d557602435610dd6826130e8565b81158015610eac575b610e8557610e1081108015610e79575b610e5a57335f52604560205260405f20610e08836130e8565b825f52600381016020528160405f205560054291015560405191610e2b816130e8565b825260208201527f4e3c648fe0e60093181c845c83e9c1616c806c9bc77c5fe0c7d672dfb90924f560403392a2005b63069a571960e11b5f52600452610e1060245262093a8060445260645ffd5b5062093a808111610def565b50603154631607535960e31b5f5260ff1690610ea0816130e8565b600452610caa816130e8565b50610eb6826130e8565b60038211610ddf565b346102d55760203660031901126102d5576060610100604051610ee181613162565b5f81525f60208201528260408201525f838201525f60808201525f60a08201525f60c08201525f60e082015201526004355f52603460205260405f20604051610f2981613162565b8154815260018201546001600160a01b03166020820190815260405190926102d19190600790610f60836107ff816002850161321c565b604085019283526003810154926060860193845260048201546080870190815260058301549060a0880191825261100f600685015493610fd460ff8087169660c08d0197610fad816130e8565b885260081c169660e08c0197610fc2816130e8565b885261083e604051809a81930161321c565b6101008a019687526040519a8b9a60208c525160208c015260018060a01b0390511660408b01525161012060608b01526101408a0190613106565b955160808901525160a08801525160c08701525161102c816130e8565b60e08601525161103b816130e8565b61010085015251838203601f1901610120850152613106565b346102d557366003190161012081126102d55760e0136102d55760e4356001600160401b0381116102d55761108d903690600401613085565b610104356001600160401b0381116102d5576110ad903690600401613085565b9290916110b8613a5d565b60ff603154169260a4356004811015806102d5576110d5826130e8565b6110de866130e8565b81861061138e57608435968742116113745760043596875f52603d60205260ff600560405f20015460081c1661135b5750611117613566565b9360443595606435936102d557611236928592611133846130e8565b60426040519860208a01907fd96619df44983bffb2d2bdf59fdcaa7488e41e487657a552bdb63984f7cbabcf82528d60408c015260018060a01b031660608b01528a60808b01528760a08b01528d60c08b015260ff8616998a60e082015260e081526111a16101008261317e565b5190206111ac6138e7565b602081519101206111bb6139b2565b602081519101206040519060208201927f8b73c3c69bb8fe3d512ecc4cf759cc79239f7b179b0ffacaa9a75d522b39400f8452604083015260608201524660808201523060a082015260a0815261121360c08261317e565b519020906040519161190160f01b83526002830152602282015220925f9a613a95565b97901561133c5790600591875f52603d60205260405f2091888355611259613566565b6001840180546001600160a01b0319166001600160a01b03909216919091179055600283018790556003830155600482015501936102d55761129a906130e8565b60ff1983541617825560c435908115158092036102d5578260409261ff007f312e4c92db7cf027c0ee62a620577affea3fb8f77304ab79bd7db2d877f13dae95549160081b169061ff001916179055835f52603d6020526005825f200161010061ff001982541617905560018060a01b03611313613566565b169482519182526020820152a360015f80516020613f3783398151915255602060405160018152f35b8761134684613c16565b6378f4355360e11b5f5260045260245260445ffd5b83836102d557631607535960e31b5f52610ea0816130e8565b8683836102d557631607535960e31b5f52610ea0816130e8565b631607535960e31b5f528582610ea0816130e8565b346102d5575f3660031901126102d5575f80516020613ed7833981519152546040516001600160a01b039091168152602090f35b346102d55760603660031901126102d557600435604435602435610e10831080156114f3575b6114d35762015180811080156114c7575b6114a757610e108210801561149b575b61147b57335f52604560205260405f20838155816001820155826002820155600542910155604051928352602083015260408201527facf26a3f23ee6e579984c6b5bd1d1164a64936d6bcab7c218a36713395b7a57c60603392a2005b5063069a571960e11b5f52600452610e1060245262093a8060445260645ffd5b5062093a80821161141e565b63069a571960e11b5f526004526201518060245262278d0060445260645ffd5b5062278d00811161140e565b8263069a571960e11b5f52600452610e1060245262093a8060445260645ffd5b5062093a8083116113fd565b346102d5575f3660031901126102d55761155961151a6138e7565b6115226139b2565b602061156760405192611535838561317e565b5f84525f368137604051958695600f60f81b875260e08588015260e0870190613106565b908582036040870152613106565b4660608501523060808501525f60a085015283810360c08501528180845192838152019301915f5b82811061159e57505050500390f35b83518552869550938101939281019260010161158f565b346102d55760403660031901126102d5576115ce6130d2565b6024359060048210156102d5576115e4826130e8565b8115801561164d575b610e85576001600160a01b03165f908152604560205260409020600301611613826130e8565b815f5260205260405f20548015611630575b602090604051908152f35b5061163a816130e8565b5f526049602052602060405f2054611625565b50611657826130e8565b600382116115ed565b346102d55760203660031901126102d5576004355f52603e6020526102d16116946102bd60405f206040519283809261321c565b038261317e565b346102d5575f3660031901126102d5576116b3613800565b60ff603154166116c2816130e8565b8015611704574260415560ff19604254166042556040514281527fd5ef1744c2a37db7b398e62c08efca5386f4ae39750ff0dded6f64cd8f06665260203392a2005b631607535960e31b5f526001600452610caa816130e8565b346102d5575f3660031901126102d557611734613800565b5f80516020613ed783398151915280546001600160a01b031981169091555f906001600160a01b03167f8be0079c531659141344cd1fd0a4f28419497f9722a3daafe3b4186f6b6457e08280a3005b346102d5575f3660031901126102d557602060ff604254166040519015158152f35b346102d5575f3660031901126102d55760a0603754603854603954603a5490603b54926040519485526020850152604084015260608301526080820152f35b346102d55760403660031901126102d557602061180b6118026130d2565b60243590613590565b604051908152f35b6130b5565b346102d55760203660031901126102d557600435611834613800565b805f52603460205260405f20541561189057805f526034602052600660405f2001805460ff8116611864816130e8565b610c8c5760ff191660031790556033541461187b57005b6031805460ff191690555f6033819055603255005b63428d06a960e01b5f5260045260245ffd5b346102d5575f3660031901126102d5577f00000000000000000000000000000000000000000000000000000000000000006001600160a01b031630036118f95760206040515f80516020613f178339815191528152f35b63703e46dd60e11b5f5260045ffd5b346102d5575f3660031901126102d55760206040517f1f346622fe76f98f207305fc64eedb11f88be0d3a37f82a30ab06160b20e0de68152f35b346102d5575f3660031901126102d557602060405162278d008152f35b60403660031901126102d5576119736130d2565b6024356001600160401b0381116102d557366023820112156102d5576119a390369060248160040135910161319f565b906001600160a01b037f000000000000000000000000000000000000000000000000000000000000000016308114908115611b08575b506118f9576119e6613800565b6040516352d1902d60e01b81526001600160a01b0382169290602081600481875afa5f9181611ad4575b50611a285783634c9c8ce360e01b5f5260045260245ffd5b805f80516020613f17833981519152859203611ac25750823b15611ab0575f80516020613f1783398151915280546001600160a01b031916821790557fbc7cd75a20ee27fd9adebab32041f755214dbc6bffa90cc0225b39da2e5c2d3b5f80a2805115611a98576106eb91613d88565b505034611aa157005b63b398979f60e01b5f5260045ffd5b634c9c8ce360e01b5f5260045260245ffd5b632a87526960e21b5f5260045260245ffd5b9091506020813d602011611b00575b81611af06020938361317e565b810103126102d557519085611a10565b3d9150611ae3565b5f80516020613f17833981519152546001600160a01b031614159050836119d9565b346102d5575f3660031901126102d557602060018060a01b0360405416604051908152f35b346102d5575f3660031901126102d5575f60a0604051611b6e81613147565b606081528260208201528260408201528260608201528260808201520152604051611b9881613147565b611ba0613434565b815260375460208201908152603854906040830191825260395460608401908152603a5460808501908152603b549160a08601928352604051946020865260e0860196519460c0602088015285518098526020610100880196015f985b808a10611c2b5750508697505160408701525160608601525160808501525160a08401525160c08301520390f35b81516001600160a01b031688526001999099019860209788019790910190611bfd565b346102d5575f3660031901126102d557602060405160148152f35b346102d55760e03660031901126102d557611c826130d2565b6024356001600160401b0381116102d557611ca1903690600401613085565b91903660a4116102d55760a4356001600160a01b038116908190036102d55760c4356001600160a01b03811692908390036102d5575f80516020613f578339815191525460ff8160401c1615946001600160401b03821680159081612494575b600114908161248a575b159081612481575b506124725767ffffffffffffffff1982166001175f80516020613f5783398151915255611d519186612446575b50611d49613ca7565b6106e6613ca7565b611d596132b9565b946040958651611d69888261317e565b6013815272115b595c99d95b98de53585b9859d95b595b9d606a1b6020820152611d91613ca7565b611d99613ca7565b8051906001600160401b0382116105df57611dc15f80516020613eb7833981519152546131e4565b601f81116123ec575b50602090601f831160011461236f57611dfa92915f9183612364575b50508160011b915f199060031b1c19161790565b5f80516020613eb7833981519152555b8051906001600160401b0382116105df57611e325f80516020613ef7833981519152546131e4565b601f81116122ff575b50602090601f831160011461228257611e6a92915f91836122775750508160011b915f199060031b1c19161790565b5f80516020613ef7833981519152555b611e82613ca7565b611e8a613ca7565b60015f80516020613f37833981519152558015801561226d575b61222f57604435918183118015612224575b8015612219575b6121d557821580156121cb575b80156121c1575b612181575f5b82811061207357506001600160401b0382116105df57600160401b82116105df5760365482603655808310612045575b5060365f525f5b82811061201d5750505060375560643560385560843560395542603a556001600160601b0360a01b603f541617603f556001600160601b0360a01b835416178255611c206043556202a300604455611c206046556202a3006047556201518060485560015f526049602052611c20825f205560025f526049602052610e10825f205560035f526049602052610e10825f205560ff19604a5416604a5542604b5560ff1960315416603155600160355542604155611fc757005b60207fc7f505b2f371ae2175ee4913f4499e1f2633a7b5936321eed1cdaeb6115181d29168ff0000000000000000195f80516020613f5783398151915254165f80516020613f57833981519152555160018152a1005b600190602061202b8461357c565b930192815f80516020613e97833981519152015501611f0e565b61206d905f80516020613e9783398151915201835f80516020613e978339815191520161333f565b87611f07565b6001600160a01b0361208e612089838686613833565b61357c565b161561213c5760018101808211612128575b8381106120b05750600101611ed7565b6120be612089838686613833565b6001600160a01b036120d4612089848888613833565b6001600160a01b039092169116146120ee576001016120a0565b8851636ab64c3b60e01b8152602060048201526012602482015271223ab83634b1b0ba329033bab0b93234b0b760711b6044820152606490fd5b634e487b7160e01b5f52601160045260245ffd5b8751636ab64c3b60e01b815260206004820152601f60248201527f477561726469616e2063616e6e6f74206265207a65726f2061646472657373006044820152606490fd5b8651636ab64c3b60e01b81526020600482015260186024820152775468726573686f6c642063616e6e6f74206265207a65726f60401b6044820152606490fd5b5060843515611ed1565b5060643515611eca565b60648751636ab64c3b60e01b815260206004820152602060248201527f5468726573686f6c64206578636565647320677561726469616e20636f756e746044820152fd5b508160843511611ebd565b508160643511611eb6565b8551636ab64c3b60e01b8152602060048201526016602482015275125b9d985b1a590819dd585c991a585b8818dbdd5b9d60521b6044820152606490fd5b5060148111611ea4565b015190508980611de6565b90601f198316915f80516020613ef78339815191525f52815f20925f5b8181106122e757509084600195949392106122cf575b505050811b015f80516020613ef783398151915255611e7a565b01515f1960f88460031b161c191690558880806122b5565b9293602060018192878601518155019501930161229f565b5f80516020613ef78339815191525f52612354907f5f9ce34815f8e11431c7bb75a8e6886a91478f7ffc1dbb0a98dc240fddd76b75601f850160051c8101916020861061235a575b601f0160051c019061333f565b88611e3b565b9091508190612347565b015190508a80611de6565b90601f198316915f80516020613eb78339815191525f52815f20925f5b8181106123d457509084600195949392106123bc575b505050811b015f80516020613eb783398151915255611e0a565b01515f1960f88460031b161c191690558980806123a2565b9293602060018192878601518155019501930161238c565b5f80516020613eb78339815191525f52612440907f42ad5d3e1f2e6e70edcf6d991b8a3023d3fca8047a131592f9edb9fd9b89d57d601f850160051c8101916020861061235a57601f0160051c019061333f565b89611dca565b68ffffffffffffffffff191668010000000000000001175f80516020613f578339815191525587611d40565b63f92ee8a960e01b5f5260045ffd5b90501588611d13565b303b159150611d0b565b879150611d01565b346102d5575f3660031901126102d5576020603254604051908152f35b346102d55760203660031901126102d5576004356001600160401b0381116102d5576124e9903690600401613003565b906124f3336134ad565b15610ce75760ff6042541615612671575f80516020613ed7833981519152546001600160a01b03165f908152604560205260409020600201548015612668575b60415490612541818361338f565b4210610a355750506031549060ff8216926125a66020604051818101906c4155544f5f455343414c41544560981b825261257a886130e8565b60f887901b6001600160f81b031916602d8201523360601b602e82015260228152610b7b60428261317e565b03915afa90811561055f575f91612649575b5015610c495750506125c9826138b6565b916125d3816130e8565b6125dc836130e8565b8083036125e557005b826060926126137f575d6082b9025f2d7c4bb1f87b6bcca530e24e65ea8b3a5c913ba9679865a460956130e8565b60ff191660ff8216176031554260415560405191612630816130e8565b825261263b816130e8565b6020820152336040820152a1005b612662915060203d60201161064257610634818361317e565b856125b8565b50604854612533565b603154631607535960e31b5f52600160045260ff16610caa816130e8565b346102d5575f3660031901126102d557603f546040516001600160a01b039091168152602090f35b346102d5575f3660031901126102d5576020603554604051908152f35b346102d5575f3660031901126102d5576020604154604051908152f35b346102d55760603660031901126102d5576004356001600160401b0381116102d557612721903690600401613085565b906024359060443560048110156102d55761273b90613c16565b9161274584613843565b905f945f5b818110612764576040868882519181101582526020820152f35b61278e61278561277f61277884868a613875565b369161319f565b85613cd2565b90929192613d0c565b612797816134ad565b806127d3575b6127ab575b5060010161274a565b876127cc916127bd6001949a88613485565b90848060a01b03169052613331565b96906127a2565b506127df888683613c61565b1561279d565b346102d5575f3660031901126102d557606060ff603154166032546033549060405192612811816130e8565b835260208301526040820152f35b346102d5575f3660031901126102d55760206040517fd96619df44983bffb2d2bdf59fdcaa7488e41e487657a552bdb63984f7cbabcf8152f35b346102d55760203660031901126102d5576102d161287d6128786130d2565b6134fb565b6040805195865260208601949094529284019190915215156060830152608082015290819060a0820190565b346102d55760203660031901126102d5576004355f52603d60205260e060405f2060ff81549160018060a01b0360018201541660028201549160038101546005600483015492015493858516936040519788526020880152604087015260608601526080850152612919816130e8565b60a084015260081c16151560c0820152f35b346102d55760203660031901126102d557602061032c6129496130d2565b6134ad565b346102d55760a03660031901126102d5576004356001600160401b0381116102d55761297e903690600401613085565b366084116102d5576084356001600160401b0381116102d5576129a5903690600401613003565b9190926129b0613800565b81158015612cc4575b612c85576024358281118015612c7a575b8015612c6f575b612c2a57158015612c20575b8015612c16575b612bd5575f5b828110612ade5750612a0c6108fb9160405192839160208301954291876133e0565b51902090612a726020604051818101906e475541524449414e5f4348414e474560881b825285602f820152602f8152612a46604f8261317e565b51902060018060a01b03603f54166040518080958194632a75286d60e11b835233898c60048601613406565b03915afa90811561055f575f91612abf575b5015612a995760208280603b55604051908152f35b60405163e1b34b8360e01b815260206004820152928392506106169160248401916132f4565b612ad8915060203d60201161064257610634818361317e565b84612a84565b6001600160a01b03612af4612089838686613833565b1615612b8f5760018101808211612128575b838110612b1657506001016129ea565b612b24612089838686613833565b6001600160a01b03612b3a612089848888613833565b6001600160a01b03909216911614612b5457600101612b06565b604051636ab64c3b60e01b8152602060048201526012602482015271223ab83634b1b0ba329033bab0b93234b0b760711b6044820152606490fd5b604051636ab64c3b60e01b815260206004820152601f60248201527f477561726469616e2063616e6e6f74206265207a65726f2061646472657373006044820152606490fd5b604051636ab64c3b60e01b81526020600482015260186024820152775468726573686f6c642063616e6e6f74206265207a65726f60401b6044820152606490fd5b50606435156129e4565b50604435156129dd565b6064604051636ab64c3b60e01b815260206004820152602060248201527f5468726573686f6c64206578636565647320677561726469616e20636f756e746044820152fd5b5082606435116129d1565b5082604435116129ca565b604051636ab64c3b60e01b8152602060048201526016602482015275125b9d985b1a590819dd585c991a585b8818dbdd5b9d60521b6044820152606490fd5b50601482116129b9565b346102d5575f3660031901126102d5576020604354604051908152f35b346102d557612cf936613030565b909392612d05336134ad565b1580612fe2575b610ce757603f546040516307ce853960e31b81529060209082906001600160a01b03168180612d4089898d60048501613314565b03915afa90811561055f575f91612fc3575b5015612fa05760355493612d6585613331565b603555335f908152604560205260409020548015612f9657905b5f8681526034602052604090208681556001810180546001600160a01b031916331790559260028401916001600160401b0382116105df57612dc58261043785546131e4565b5f90601f8311600114612f2a57826007969593612e109593612dfb935f92612f1f5750508160011b915f199060031b1c19161790565b90555b8560038401554260048401554261338f565b600582015560068101805461ffff191661010017905501906001600160401b0381116105df57602094612e478261043785546131e4565b5f90601f8311600114612ebd57612e7492915f9183612eb25750508160011b915f199060031b1c19161790565b90555b604051908152600183820152817f71caa1caf24a3fc272e97030fd9b7b9bfa8cbeada2d35fe54f42937a0c092f8060403393a3604051908152f35b013590508780611de6565b601f19831691845f52875f20925f5b818110612f085750908460019594939210612eef575b505050811b019055612e77565b01355f19600384901b60f8161c19169055868080612ee2565b919389600181928787013581550195019201612ecc565b013590508c80611de6565b601f19831691845f5260205f20925f5b818110612f7e57509260019285926007999896612e10989610612f65575b505050811b019055612dfe565b01355f19600384901b60f8161c191690558b8080612f58565b91936020600181928787013581550195019201612f3a565b5060465490612d7f565b60405163e1b34b8360e01b815260206004820152806106166024820185896132f4565b612fdc915060203d60201161064257610634818361317e565b86612d52565b505f80516020613ed7833981519152546001600160a01b0316331415612d0c565b9181601f840112156102d5578235916001600160401b0383116102d557602083818601950101116102d557565b9060606003198301126102d5576004356001600160401b0381116102d5578261305b91600401613003565b9290929160243591604435906001600160401b0382116102d55761308191600401613003565b9091565b9181601f840112156102d5578235916001600160401b0383116102d5576020808501948460051b0101116102d557565b346102d5575f3660031901126102d5576020604051620151808152f35b600435906001600160a01b03821682036102d557565b600411156130f257565b634e487b7160e01b5f52602160045260245ffd5b805180835260209291819084018484015e5f828201840152601f01601f1916010190565b346102d5575f3660031901126102d557602060405162093a808152f35b60c081019081106001600160401b038211176105df57604052565b61012081019081106001600160401b038211176105df57604052565b90601f801991011681019081106001600160401b038211176105df57604052565b9291926001600160401b0382116105df57604051916131c8601f8201601f19166020018461317e565b8294818452818301116102d5578281602093845f960137010152565b90600182811c92168015613212575b60208310146131fe57565b634e487b7160e01b5f52602260045260245ffd5b91607f16916131f3565b5f929181549161322b836131e4565b8083529260018116908115613280575060011461324757505050565b5f9081526020812093945091925b838310613266575060209250010190565b600181602092949394548385870101520191019190613255565b915050602093945060ff929192191683830152151560051b010190565b346102d5575f3660031901126102d5576020604051610e108152f35b604051906132c860408361317e565b60058252640312e302e360dc1b6020830152565b908160209103126102d5575180151581036102d55790565b908060209392818452848401375f828201840152601f01601f1916010190565b93929160209161332c916040875260408701916132f4565b930152565b5f1981146121285760010190565b81811061334a575050565b5f815560010161333f565b9190601f811161336457505050565b61338d925f5260205f20906020601f840160051c8301931061235a57601f0160051c019061333f565b565b9190820180921161212857565b916020908281520191905f905b8082106133b65750505090565b90919283359060018060a01b0382168092036102d5576020816001938293520194019201906133a9565b9392916080916133f89160a0875260a087019161339c565b936060602460208301370152565b9061342090604093969594966060845260608401916132f4565b6001600160a01b0390951660208201520152565b60405190603654808352826020810160365f5260205f20925f5b81811061346357505061338d9250038361317e565b84546001600160a01b031683526001948501948794506020909301920161344e565b80518210156134995760209160051b010190565b634e487b7160e01b5f52603260045260245ffd5b6134b5613434565b905f5b82518110156134f4576001600160a01b036134d38285613485565b51166001600160a01b038316146134ec576001016134b8565b505050600190565b5050505f90565b6001600160a01b03165f9081526045602052604090206005810154801561353a5781549060018301549360ff6004600286015495015416929493929190565b5050604654604754916048549160ff604a541691604b54919493929190565b9190820391821161212857565b6024356001600160a01b03811681036102d55790565b356001600160a01b03811681036102d55790565b606482116136b0576001600160a01b03165f908152604560205260409020600481015460ff161561369d57548015613694575b605082106136245750604f1981019081116121285761010e81029080820461010e14901517156121285761070801806107081161212857905b610e10821061361a575b62093a80821161361257565b62093a809150565b610e109150613606565b602882106136615750602719810190811161212857610168810290808204610168149015171561212857611c200180611c201161212857906135fc565b90806028039060288211612128576103848202918204610384149060281417156121285761368e9161338f565b906135fc565b506046546135c3565b54905080156136a95790565b5060465490565b506327aaa06960e21b5f5260045260245ffd5b6001600160401b0381116105df5760051b60200190565b6001600160a01b03168015613738575f80516020613ed783398151915280546001600160a01b0319811683179091556001600160a01b03167f8be0079c531659141344cd1fd0a4f28419497f9722a3daafe3b4186f6b6457e05f80a3565b631e4fbdf760e01b5f525f60045260245ffd5b929192613757836134ad565b156137f85760408051602081810196875260609590951b6bffffffffffffffffffffffff1916918101919091526137c7949061379681605481016108fb565b519020603f546040516340bfabdf60e01b81529586946001600160a01b039092169385938493909160048501613314565b03915afa90811561055f575f916137dc575090565b6137f5915060203d60201161064257610634818361317e565b90565b505050505f90565b5f80516020613ed7833981519152546001600160a01b0316330361382057565b63118cdaa760e01b5f523360045260245ffd5b91908110156134995760051b0190565b9061384d826136c3565b61385a604051918261317e565b828152809261386b601f19916136c3565b0190602036910137565b91908110156134995760051b81013590601e19813603018212156102d55701908135916001600160401b0383116102d55760200182360381136102d5579190565b6138bf816130e8565b600181146138e1576138d0816130e8565b600281146138db5790565b50600390565b50600290565b6040515f80516020613eb783398151915254815f613904836131e4565b80835292600181169081156139935750600114613928575b6137f59250038261317e565b505f80516020613eb78339815191525f90815290917f42ad5d3e1f2e6e70edcf6d991b8a3023d3fca8047a131592f9edb9fd9b89d57d5b8183106139775750509060206137f59282010161391c565b602091935080600191548385880101520191019091839261395f565b602092506137f594915060ff191682840152151560051b82010161391c565b6040515f80516020613ef783398151915254815f6139cf836131e4565b808352926001811690811561399357506001146139f2576137f59250038261317e565b505f80516020613ef78339815191525f90815290917f5f9ce34815f8e11431c7bb75a8e6886a91478f7ffc1dbb0a98dc240fddd76b755b818310613a415750509060206137f59282010161391c565b6020919350806001915483858801015201910190918392613a29565b60025f80516020613f378339815191525414613a865760025f80516020613f3783398151915255565b633ee5aeb560e01b5f5260045ffd5b91939094838603613c0a57613aa990613c16565b93613ab386613843565b915f965f5b818110613acc575050505050505081101591565b613ae061278561277f61277884868b613875565b613ae9816134ad565b80613bf8575b613afd575b50600101613ab8565b613b986020604051818101906001600160601b03198560601b16825242603482015260348152613b2e60548261317e565b519020604051828101918252606085901b6bffffffffffffffffffffffff19166020830152613b6081603484016108fb565b519020603f546001600160a01b0316613b7a868d8b613875565b6040516340bfabdf60e01b8152958694859384939060048501613314565b03915afa90811561055f575f91613bda575b5015613af4579098600191613bd391906001600160a01b0316613bcd8289613485565b52613331565b9890613af4565b613bf2915060203d811161064257610634818361317e565b5f613baa565b50613c048a8783613c61565b15613aef565b5050505050505f905f90565b613c1f816130e8565b60018114613c5a57613c30816130e8565b60028114613c5357600390613c44816130e8565b14613c4d575f90565b60395490565b5060385490565b5060375490565b905f5b838110613c7357505050505f90565b6001600160a01b03613c858284613485565b51166001600160a01b03841614613c9e57600101613c64565b50505050600190565b60ff5f80516020613f578339815191525460401c1615613cc357565b631afcd79f60e31b5f5260045ffd5b8151919060418303613d0257613cfb9250602082015190606060408401519301515f1a90613e14565b9192909190565b50505f9160029190565b613d15816130e8565b80613d1e575050565b613d27816130e8565b60018103613d3e5763f645eedf60e01b5f5260045ffd5b613d47816130e8565b60028103613d62575063fce698f760e01b5f5260045260245ffd5b600390613d6e816130e8565b14613d765750565b6335e2f38360e21b5f5260045260245ffd5b905f8091602081519101845af48080613e01575b15613dbc5750506040513d81523d5f602083013e60203d82010160405290565b15613de157639996b31560e01b5f9081526001600160a01b0391909116600452602490fd5b3d15613df2576040513d5f823e3d90fd5b63d6bda27560e01b5f5260045ffd5b503d151580613d9c5750813b1515613d9c565b91907f7fffffffffffffffffffffffffffffff5d576e7357a4501ddfe92f46681b20a08411613e8b579160209360809260ff5f9560405194855216868401526040830152606082015282805260015afa1561055f575f516001600160a01b03811615613e8157905f905f90565b505f906001905f90565b5050505f916003919056fe4a11f94e20a93c79f6ec743a1954ec4fc2c08429ae2122118bf234b2185c81b8a16a46d94261c7517cc8ff89f61c0ce93598e3c849801011dee649a6a557d1029016d09d72d40fdae2fd8ceac6b6234c7706214fd39c1cd1e609a0528c199300a16a46d94261c7517cc8ff89f61c0ce93598e3c849801011dee649a6a557d103360894a13ba1a3210667c828492db98dca3e2076cc3735a920a3ca505d382bbc9b779b17422d0df92223018b32b4d1fa46e071723d6817e2486d003becc55f00f0c57e16840df040f15088dc2f81fe391c3923bec73e23a9662efc9c229c6a00","linkReferences":{}},"methodIdentifiers":{"GUARDIAN_SIGNATURE_TYPEHASH()":"50703945","MAX_EMERGENCY_TIMELOCK()":"af191fca","MAX_GRACE_PERIOD()":"46619649","MAX_GUARDIANS()":"422c1d37","MAX_GUARDIAN_CHANGE_TIMELOCK()":"4ff7f54a","MAX_TIMELOCK_PERIOD()":"4e055edc","MIN_EMERGENCY_TIMELOCK()":"e725d434","MIN_GRACE_PERIOD()":"883a0038","MIN_GUARDIAN_CHANGE_TIMELOCK()":"09b301ba","MIN_TIMELOCK_PERIOD()":"930ed8e4","OWNER_RESPONSE_GRACE_PERIOD()":"638dddb4","PAYMENT_REQUEST_TYPEHASH()":"1e049b66","UPGRADE_INTERFACE_VERSION()":"ad3cb1cc","VERSION()":"ffa1ad74","acknowledgeResolution()":"71ae90ef","activateEmergency(uint256,bytes)":"b384a2b6","activeProposalId()":"a81160c0","adjustTimelockForRisk(address,uint256)":"65c3969c","cancelEmergencyProposal(uint256)":"6240dc10","checkAndAutoEscalate(bytes)":"3cc1ab37","currentEmergencyLevel()":"a618dfbd","eip712Domain()":"84b0196e","emergencyActivatedAt()":"3d63f215","emergencyDataStorage()":"4e17edde","emergencyProposalTimelock()":"08b16377","emergencyProposals(uint256)":"c18ba119","executeGuardianChange(address[],uint256[3],bytes32)":"b953f3d0","executePaymentWithMultiSig((bytes32,address,uint256,bytes32,uint256,uint8,bool),bytes[],bytes[])":"94839cf3","getCurrentEmergencyState()":"21d294d6","getEmergencyProposal(uint256)":"9dfeb240","getGuardianConfig()":"45d70cfd","getLevelSpecificTimelock(address,uint8)":"73767683","getUserTimelockConfig(address)":"1460a2ad","getVersion()":"0d8e6e2c","guardianChangeTimelock()":"ed2fdfc5","guardianConfig()":"6a6b47d2","guardianNonces(address)":"eac43b4a","initialize(address,address[],uint256[3],address,address)":"3f6476a7","isGuardian(address)":"0c68ba21","lastOwnerResponse()":"2a37328c","levelDataCID(bytes32)":"733e9aba","nextProposalId()":"2ab09d14","owner()":"8da5cb5b","ownerResponseRequired()":"70f36e9e","paymentRequests(bytes32)":"0d7a55ba","proposeEmergency(bytes,bytes32,bytes)":"0536d83e","proposeGuardianChange(address[],uint256[3],bytes)":"0966c1ee","proxiableUUID()":"52d1902d","renounceOwnership()":"715018a6","setDynamicTimelockAdjustment(bool)":"d4b9a282","setLevelSpecificTimelock(uint8,uint256)":"a278b42b","storeEncryptedEmergencyData(string,bytes32,bytes)":"f4f90d7d","transferOwnership(address)":"f2fde38b","updateTimelockConfig(uint256,uint256,uint256)":"8d1895c2","upgradeToAndCall(address,bytes)":"4f1ef286","userTimelockConfigs(address)":"f470687f","validateGuardianZKProof(bytes,bytes32,address)":"fe391491","verifyGuardianThreshold(bytes[],bytes32,uint8)":"22383d3e","zkProofVerifier()":"2beb449e"},"id":53}