{"abi":[{"type":"function","name":"dataRefs","inputs":[{"name":"","type":"bytes32","internalType":"bytes32"}],"outputs":[{"name":"ipfsHash","type":"string","internalType":"string"},{"name":"dataHash","type":"bytes32","internalType":"bytes32"},{"name":"timestamp","type":"uint256","internalType":"uint256"},{"name":"owner","type":"address","internalType":"address"},{"name":"accessLevel","type":"uint256","internalType":"uint256"},{"name":"active","type":"bool","internalType":"bool"}],"stateMutability":"view"},{"type":"function","name":"getEmergencyDataRef","inputs":[{"name":"dataId","type":"bytes32","internalType":"bytes32"},{"name":"","type":"address","internalType":"address"},{"name":"","type":"bytes","internalType":"bytes"}],"outputs":[{"name":"dataRef","type":"tuple","internalType":"struct IEmergencyDataStorage.EmergencyDataRef","components":[{"name":"ipfsHash","type":"string","internalType":"string"},{"name":"dataHash","type":"bytes32","internalType":"bytes32"},{"name":"timestamp","type":"uint256","internalType":"uint256"},{"name":"owner","type":"address","internalType":"address"},{"name":"accessLevel","type":"uint256","internalType":"uint256"},{"name":"active","type":"bool","internalType":"bool"}]}],"stateMutability":"view"},{"type":"function","name":"getOwnerDataRefs","inputs":[{"name":"owner","type":"address","internalType":"address"}],"outputs":[{"name":"dataIds","type":"bytes32[]","internalType":"bytes32[]"}],"stateMutability":"view"},{"type":"function","name":"ownerDataRefs","inputs":[{"name":"","type":"address","internalType":"address"},{"name":"","type":"uint256","internalType":"uint256"}],"outputs":[{"name":"","type":"bytes32","internalType":"bytes32"}],"stateMutability":"view"},{"type":"function","name":"revokeDataAccess","inputs":[{"name":"dataId","type":"bytes32","internalType":"bytes32"},{"name":"","type":"string","internalType":"string"}],"outputs":[],"stateMutability":"nonpayable"},{"type":"function","name":"storeEncryptedEmergencyData","inputs":[{"name":"ipfsHash","type":"string","internalType":"string"},{"name":"dataHash","type":"bytes32","internalType":"bytes32"},{"name":"accessLevel","type":"uint256","internalType":"uint256"},{"name":"","type":"bytes","internalType":"bytes"}],"outputs":[{"name":"dataId","type":"bytes32","internalType":"bytes32"}],"stateMutability":"nonpayable"},{"type":"function","name":"updateDataAccessLevel","inputs":[{"name":"dataId","type":"bytes32","internalType":"bytes32"},{"name":"newAccessLevel","type":"uint256","internalType":"uint256"},{"name":"","type":"bytes","internalType":"bytes"}],"outputs":[],"stateMutability":"nonpayable"},{"type":"function","name":"verifyDataIntegrity","inputs":[{"name":"dataId","type":"bytes32","internalType":"bytes32"},{"name":"providedHash","type":"bytes32","internalType":"bytes32"}],"outputs":[{"name":"isValid","type":"bool","internalType":"bool"}],"stateMutability":"view"},{"type":"event","name":"DataAccessLevelUpdated","inputs":[{"name":"dataId","type":"bytes32","indexed":true,"internalType":"bytes32"},{"name":"oldLevel","type":"uint256","indexed":false,"internalType":"uint256"},{"name":"newLevel","type":"uint256","indexed":false,"internalType":"uint256"},{"name":"updatedBy","type":"address","indexed":false,"internalType":"address"}],"anonymous":false},{"type":"event","name":"DataAccessRevoked","inputs":[{"name":"dataId","type":"bytes32","indexed":true,"internalType":"bytes32"},{"name":"owner","type":"address","indexed":true,"internalType":"address"},{"name":"reason","type":"string","indexed":false,"internalType":"string"}],"anonymous":false},{"type":"event","name":"DataAccessed","inputs":[{"name":"dataId","type":"bytes32","indexed":true,"internalType":"bytes32"},{"name":"requester","type":"address","indexed":true,"internalType":"address"},{"name":"accessLevel","type":"uint256","indexed":false,"internalType":"uint256"},{"name":"timestamp","type":"uint256","indexed":false,"internalType":"uint256"}],"anonymous":false},{"type":"event","name":"EmergencyDataStored","inputs":[{"name":"dataId","type":"bytes32","indexed":true,"internalType":"bytes32"},{"name":"owner","type":"address","indexed":true,"internalType":"address"},{"name":"ipfsHash","type":"string","indexed":false,"internalType":"string"},{"name":"accessLevel","type":"uint256","indexed":false,"internalType":"uint256"}],"anonymous":false},{"type":"error","name":"DataIntegrityCheckFailed","inputs":[{"name":"dataId","type":"bytes32","internalType":"bytes32"},{"name":"expectedHash","type":"bytes32","internalType":"bytes32"},{"name":"providedHash","type":"bytes32","internalType":"bytes32"}]},{"type":"error","name":"DataNotFound","inputs":[{"name":"dataId","type":"bytes32","internalType":"bytes32"}]},{"type":"error","name":"InsufficientAccessLevel","inputs":[{"name":"required","type":"uint256","internalType":"uint256"},{"name":"provided","type":"uint256","internalType":"uint256"}]},{"type":"error","name":"UnauthorizedAccess","inputs":[{"name":"caller","type":"address","internalType":"address"},{"name":"dataId","type":"bytes32","internalType":"bytes32"}]}],"bytecode":{"object":"0x608080604052346015576108bd908161001a8239f35b5f80fdfe6080806040526004361015610012575f80fd5b5f3560e01c9081630437fc521461064f5750806320638dd9146105ec5780635eb9646f146103145780636715965c146102bc57806386408cb61461028c5780638d1fc2e714610206578063cf5e0a40146100df5763f936bc5614610074575f80fd5b346100db5760403660031901126100db5760043560243567ffffffffffffffff81116100db576100a890369060040161072c565b5050805f525f60205260ff600560405f200154166100c257005b5f525f602052600560405f200160ff1981541690555f80f35b5f80fd5b346100db5760603660031901126100db576100f8610716565b5060443567ffffffffffffffff81116100db5761011990369060040161072c565b50505f60a060405161012a816107bb565b6060815282602082015282604082015282606082015282608082015201526004355f525f6020526101d860405f2060405190610165826107bb565b61016e816107f9565b8252600181015490602083019182526002810154906040840191825260018060a01b036003820154166060850190815260ff6005600484015493608088019485520154169260a086019315158452604051968796602088525160c0602089015260e0880190610899565b94516040870152516060860152516001600160a01b031660808501525160a084015251151560c08301520390f35b346100db5760203660031901126100db576004355f525f60205261026c60405f20610230816107f9565b9060018101549060028101549060018060a01b0360038201541660ff60056004840154930154169260405196879660c0885260c0880190610899565b946020870152604086015260608501526080840152151560a08301520390f35b346100db5760403660031901126100db576004355f525f6020526020602435600160405f20015414604051908152f35b346100db5760403660031901126100db576102d5610700565b6001600160a01b03165f908152600160205260409020805460243591908210156100db576020916103059161075a565b90549060031b1c604051908152f35b346100db5760803660031901126100db5760043567ffffffffffffffff81116100db5761034590369060040161072c565b90602435916044359060643567ffffffffffffffff81116100db5761036e90369060040161072c565b50506040516020810190828583376103af60746020838681018a838201528860408201523360601b60608201524284820152030160548101845201826107d7565b51902092604051916103c0836107bb565b67ffffffffffffffff811161052257604051916103e7601f8301601f1916602001846107d7565b81835236828201116100db57815f9260209283860137830101528152602081019384526040810191428352606082013381526080830191825260a083019360018552855f525f60205260405f20935196875167ffffffffffffffff8111610522576104528654610783565b601f81116105a7575b506020601f8211600114610541578190600598999a5f92610536575b50508160011b915f199060031b1c19161785555b516001850155516002840155600383019060018060a01b039051166bffffffffffffffffffffffff60a01b825416179055516004820155019051151560ff80198354169116179055335f52600160205260405f209081549168010000000000000000831015610522578261050691600160209501815561075a565b81549060031b9083821b915f19901b1916179055604051908152f35b634e487b7160e01b5f52604160045260245ffd5b015190508a80610477565b601f19821699875f52815f209a5f5b81811061058f5750916005999a9b91846001959410610577575b505050811b01855561048b565b01515f1960f88460031b161c191690558a808061056a565b838301518d556001909c019b60209384019301610550565b865f5260205f20601f830160051c810191602084106105e2575b601f0160051c01905b8181106105d7575061045b565b5f81556001016105ca565b90915081906105c1565b346100db5760603660031901126100db5760043560443567ffffffffffffffff81116100db5761062090369060040161072c565b5050805f525f60205260ff600560405f2001541661063a57005b5f525f602052602435600460405f2001555f80f35b346100db5760203660031901126100db576001600160a01b03610670610700565b165f52600160205260405f20908154808252602082019081935f5260205f20905f5b8181106106ea57505050816106a89103826107d7565b604051918291602083019060208452518091526040830191905f5b8181106106d1575050500390f35b82518452859450602093840193909201916001016106c3565b8254845260209093019260019283019201610692565b600435906001600160a01b03821682036100db57565b602435906001600160a01b03821682036100db57565b9181601f840112156100db5782359167ffffffffffffffff83116100db57602083818601950101116100db57565b805482101561076f575f5260205f2001905f90565b634e487b7160e01b5f52603260045260245ffd5b90600182811c921680156107b1575b602083101461079d57565b634e487b7160e01b5f52602260045260245ffd5b91607f1691610792565b60c0810190811067ffffffffffffffff82111761052257604052565b90601f8019910116810190811067ffffffffffffffff82111761052257604052565b9060405191825f82549261080c84610783565b80845293600181169081156108775750600114610833575b50610831925003836107d7565b565b90505f9291925260205f20905f915b81831061085b575050906020610831928201015f610824565b6020919350806001915483858901015201910190918492610842565b90506020925061083194915060ff191682840152151560051b8201015f610824565b805180835260209291819084018484015e5f828201840152601f01601f191601019056","linkReferences":{}},"methodIdentifiers":{"dataRefs(bytes32)":"8d1fc2e7","getEmergencyDataRef(bytes32,address,bytes)":"cf5e0a40","getOwnerDataRefs(address)":"0437fc52","ownerDataRefs(address,uint256)":"6715965c","revokeDataAccess(bytes32,string)":"f936bc56","storeEncryptedEmergencyData(string,bytes32,uint256,bytes)":"5eb9646f","updateDataAccessLevel(bytes32,uint256,bytes)":"20638dd9","verifyDataIntegrity(bytes32,bytes32)":"86408cb6"},"id":61}