{
  "_format": "hh-sol-artifact-1",
  "contractName": "TravelMutualAid",
  "sourceName": "contracts/TravelMutualAid.sol",
  "abi": [
    {
      "inputs": [],
      "stateMutability": "nonpayable",
      "type": "constructor"
    },
    {
      "anonymous": false,
      "inputs": [
        {
          "indexed": true,
          "internalType": "uint256",
          "name": "requestId",
          "type": "uint256"
        }
      ],
      "name": "RequestCompleted",
      "type": "event"
    },
    {
      "anonymous": false,
      "inputs": [
        {
          "indexed": true,
          "internalType": "uint256",
          "name": "requestId",
          "type": "uint256"
        },
        {
          "indexed": true,
          "internalType": "address",
          "name": "requester",
          "type": "address"
        },
        {
          "indexed": false,
          "internalType": "string",
          "name": "title",
          "type": "string"
        }
      ],
      "name": "RequestCreated",
      "type": "event"
    },
    {
      "anonymous": false,
      "inputs": [
        {
          "indexed": true,
          "internalType": "uint256",
          "name": "requestId",
          "type": "uint256"
        },
        {
          "indexed": true,
          "internalType": "address",
          "name": "helper",
          "type": "address"
        }
      ],
      "name": "RequestMatched",
      "type": "event"
    },
    {
      "anonymous": false,
      "inputs": [
        {
          "indexed": true,
          "internalType": "uint256",
          "name": "requestId",
          "type": "uint256"
        },
        {
          "indexed": true,
          "internalType": "address",
          "name": "reviewer",
          "type": "address"
        },
        {
          "indexed": true,
          "internalType": "address",
          "name": "reviewed",
          "type": "address"
        },
        {
          "indexed": false,
          "internalType": "uint256",
          "name": "rating",
          "type": "uint256"
        }
      ],
      "name": "ReviewSubmitted",
      "type": "event"
    },
    {
      "anonymous": false,
      "inputs": [
        {
          "indexed": true,
          "internalType": "address",
          "name": "user",
          "type": "address"
        },
        {
          "indexed": false,
          "internalType": "string",
          "name": "name",
          "type": "string"
        }
      ],
      "name": "UserRegistered",
      "type": "event"
    },
    {
      "inputs": [],
      "name": "CREDIT_REWARD",
      "outputs": [
        {
          "internalType": "uint256",
          "name": "",
          "type": "uint256"
        }
      ],
      "stateMutability": "view",
      "type": "function"
    },
    {
      "inputs": [
        {
          "internalType": "uint256",
          "name": "_requestId",
          "type": "uint256"
        }
      ],
      "name": "acceptRequest",
      "outputs": [],
      "stateMutability": "nonpayable",
      "type": "function"
    },
    {
      "inputs": [
        {
          "internalType": "uint256",
          "name": "_requestId",
          "type": "uint256"
        }
      ],
      "name": "completeRequest",
      "outputs": [],
      "stateMutability": "nonpayable",
      "type": "function"
    },
    {
      "inputs": [
        {
          "internalType": "string",
          "name": "_title",
          "type": "string"
        },
        {
          "internalType": "string",
          "name": "_description",
          "type": "string"
        },
        {
          "internalType": "string",
          "name": "_location",
          "type": "string"
        },
        {
          "internalType": "uint256",
          "name": "_helpType",
          "type": "uint256"
        }
      ],
      "name": "createRequest",
      "outputs": [],
      "stateMutability": "nonpayable",
      "type": "function"
    },
    {
      "inputs": [
        {
          "internalType": "uint256",
          "name": "",
          "type": "uint256"
        }
      ],
      "name": "creditCosts",
      "outputs": [
        {
          "internalType": "uint256",
          "name": "",
          "type": "uint256"
        }
      ],
      "stateMutability": "view",
      "type": "function"
    },
    {
      "inputs": [
        {
          "internalType": "uint256",
          "name": "_helpType",
          "type": "uint256"
        }
      ],
      "name": "getCreditCost",
      "outputs": [
        {
          "internalType": "uint256",
          "name": "",
          "type": "uint256"
        }
      ],
      "stateMutability": "view",
      "type": "function"
    },
    {
      "inputs": [],
      "name": "getOpenRequests",
      "outputs": [
        {
          "components": [
            {
              "internalType": "uint256",
              "name": "id",
              "type": "uint256"
            },
            {
              "internalType": "address",
              "name": "requester",
              "type": "address"
            },
            {
              "internalType": "string",
              "name": "title",
              "type": "string"
            },
            {
              "internalType": "string",
              "name": "description",
              "type": "string"
            },
            {
              "internalType": "string",
              "name": "location",
              "type": "string"
            },
            {
              "internalType": "uint256",
              "name": "timestamp",
              "type": "uint256"
            },
            {
              "internalType": "enum TravelMutualAid.RequestStatus",
              "name": "status",
              "type": "uint8"
            },
            {
              "internalType": "address",
              "name": "helper",
              "type": "address"
            },
            {
              "internalType": "uint256",
              "name": "helpType",
              "type": "uint256"
            }
          ],
          "internalType": "struct TravelMutualAid.Request[]",
          "name": "",
          "type": "tuple[]"
        }
      ],
      "stateMutability": "view",
      "type": "function"
    },
    {
      "inputs": [
        {
          "internalType": "uint256",
          "name": "_requestId",
          "type": "uint256"
        }
      ],
      "name": "getRequest",
      "outputs": [
        {
          "components": [
            {
              "internalType": "uint256",
              "name": "id",
              "type": "uint256"
            },
            {
              "internalType": "address",
              "name": "requester",
              "type": "address"
            },
            {
              "internalType": "string",
              "name": "title",
              "type": "string"
            },
            {
              "internalType": "string",
              "name": "description",
              "type": "string"
            },
            {
              "internalType": "string",
              "name": "location",
              "type": "string"
            },
            {
              "internalType": "uint256",
              "name": "timestamp",
              "type": "uint256"
            },
            {
              "internalType": "enum TravelMutualAid.RequestStatus",
              "name": "status",
              "type": "uint8"
            },
            {
              "internalType": "address",
              "name": "helper",
              "type": "address"
            },
            {
              "internalType": "uint256",
              "name": "helpType",
              "type": "uint256"
            }
          ],
          "internalType": "struct TravelMutualAid.Request",
          "name": "",
          "type": "tuple"
        }
      ],
      "stateMutability": "view",
      "type": "function"
    },
    {
      "inputs": [
        {
          "internalType": "address",
          "name": "_user",
          "type": "address"
        }
      ],
      "name": "getUser",
      "outputs": [
        {
          "components": [
            {
              "internalType": "string",
              "name": "name",
              "type": "string"
            },
            {
              "internalType": "string",
              "name": "location",
              "type": "string"
            },
            {
              "internalType": "uint256",
              "name": "trustScore",
              "type": "uint256"
            },
            {
              "internalType": "uint256",
              "name": "totalHelps",
              "type": "uint256"
            },
            {
              "internalType": "uint256",
              "name": "totalReceived",
              "type": "uint256"
            },
            {
              "internalType": "uint256",
              "name": "credits",
              "type": "uint256"
            },
            {
              "internalType": "bool",
              "name": "exists",
              "type": "bool"
            }
          ],
          "internalType": "struct TravelMutualAid.User",
          "name": "",
          "type": "tuple"
        }
      ],
      "stateMutability": "view",
      "type": "function"
    },
    {
      "inputs": [
        {
          "internalType": "address",
          "name": "_user",
          "type": "address"
        }
      ],
      "name": "getUserCredits",
      "outputs": [
        {
          "internalType": "uint256",
          "name": "",
          "type": "uint256"
        }
      ],
      "stateMutability": "view",
      "type": "function"
    },
    {
      "inputs": [
        {
          "internalType": "address",
          "name": "_user",
          "type": "address"
        }
      ],
      "name": "getUserRequests",
      "outputs": [
        {
          "components": [
            {
              "internalType": "uint256",
              "name": "id",
              "type": "uint256"
            },
            {
              "internalType": "address",
              "name": "requester",
              "type": "address"
            },
            {
              "internalType": "string",
              "name": "title",
              "type": "string"
            },
            {
              "internalType": "string",
              "name": "description",
              "type": "string"
            },
            {
              "internalType": "string",
              "name": "location",
              "type": "string"
            },
            {
              "internalType": "uint256",
              "name": "timestamp",
              "type": "uint256"
            },
            {
              "internalType": "enum TravelMutualAid.RequestStatus",
              "name": "status",
              "type": "uint8"
            },
            {
              "internalType": "address",
              "name": "helper",
              "type": "address"
            },
            {
              "internalType": "uint256",
              "name": "helpType",
              "type": "uint256"
            }
          ],
          "internalType": "struct TravelMutualAid.Request[]",
          "name": "",
          "type": "tuple[]"
        }
      ],
      "stateMutability": "view",
      "type": "function"
    },
    {
      "inputs": [
        {
          "internalType": "string",
          "name": "_name",
          "type": "string"
        },
        {
          "internalType": "string",
          "name": "_location",
          "type": "string"
        }
      ],
      "name": "registerUser",
      "outputs": [],
      "stateMutability": "nonpayable",
      "type": "function"
    },
    {
      "inputs": [],
      "name": "requestCount",
      "outputs": [
        {
          "internalType": "uint256",
          "name": "",
          "type": "uint256"
        }
      ],
      "stateMutability": "view",
      "type": "function"
    },
    {
      "inputs": [
        {
          "internalType": "uint256",
          "name": "",
          "type": "uint256"
        },
        {
          "internalType": "uint256",
          "name": "",
          "type": "uint256"
        }
      ],
      "name": "requestReviews",
      "outputs": [
        {
          "internalType": "address",
          "name": "reviewer",
          "type": "address"
        },
        {
          "internalType": "address",
          "name": "reviewed",
          "type": "address"
        },
        {
          "internalType": "uint256",
          "name": "requestId",
          "type": "uint256"
        },
        {
          "internalType": "uint256",
          "name": "rating",
          "type": "uint256"
        },
        {
          "internalType": "string",
          "name": "comment",
          "type": "string"
        },
        {
          "internalType": "uint256",
          "name": "timestamp",
          "type": "uint256"
        }
      ],
      "stateMutability": "view",
      "type": "function"
    },
    {
      "inputs": [
        {
          "internalType": "uint256",
          "name": "",
          "type": "uint256"
        }
      ],
      "name": "requests",
      "outputs": [
        {
          "internalType": "uint256",
          "name": "id",
          "type": "uint256"
        },
        {
          "internalType": "address",
          "name": "requester",
          "type": "address"
        },
        {
          "internalType": "string",
          "name": "title",
          "type": "string"
        },
        {
          "internalType": "string",
          "name": "description",
          "type": "string"
        },
        {
          "internalType": "string",
          "name": "location",
          "type": "string"
        },
        {
          "internalType": "uint256",
          "name": "timestamp",
          "type": "uint256"
        },
        {
          "internalType": "enum TravelMutualAid.RequestStatus",
          "name": "status",
          "type": "uint8"
        },
        {
          "internalType": "address",
          "name": "helper",
          "type": "address"
        },
        {
          "internalType": "uint256",
          "name": "helpType",
          "type": "uint256"
        }
      ],
      "stateMutability": "view",
      "type": "function"
    },
    {
      "inputs": [
        {
          "internalType": "uint256",
          "name": "_requestId",
          "type": "uint256"
        },
        {
          "internalType": "address",
          "name": "_reviewed",
          "type": "address"
        },
        {
          "internalType": "uint256",
          "name": "_rating",
          "type": "uint256"
        },
        {
          "internalType": "string",
          "name": "_comment",
          "type": "string"
        }
      ],
      "name": "submitReview",
      "outputs": [],
      "stateMutability": "nonpayable",
      "type": "function"
    },
    {
      "inputs": [
        {
          "internalType": "uint256",
          "name": "",
          "type": "uint256"
        }
      ],
      "name": "userAddresses",
      "outputs": [
        {
          "internalType": "address",
          "name": "",
          "type": "address"
        }
      ],
      "stateMutability": "view",
      "type": "function"
    },
    {
      "inputs": [
        {
          "internalType": "address",
          "name": "",
          "type": "address"
        },
        {
          "internalType": "uint256",
          "name": "",
          "type": "uint256"
        }
      ],
      "name": "userReviews",
      "outputs": [
        {
          "internalType": "address",
          "name": "reviewer",
          "type": "address"
        },
        {
          "internalType": "address",
          "name": "reviewed",
          "type": "address"
        },
        {
          "internalType": "uint256",
          "name": "requestId",
          "type": "uint256"
        },
        {
          "internalType": "uint256",
          "name": "rating",
          "type": "uint256"
        },
        {
          "internalType": "string",
          "name": "comment",
          "type": "string"
        },
        {
          "internalType": "uint256",
          "name": "timestamp",
          "type": "uint256"
        }
      ],
      "stateMutability": "view",
      "type": "function"
    },
    {
      "inputs": [
        {
          "internalType": "address",
          "name": "",
          "type": "address"
        }
      ],
      "name": "users",
      "outputs": [
        {
          "internalType": "string",
          "name": "name",
          "type": "string"
        },
        {
          "internalType": "string",
          "name": "location",
          "type": "string"
        },
        {
          "internalType": "uint256",
          "name": "trustScore",
          "type": "uint256"
        },
        {
          "internalType": "uint256",
          "name": "totalHelps",
          "type": "uint256"
        },
        {
          "internalType": "uint256",
          "name": "totalReceived",
          "type": "uint256"
        },
        {
          "internalType": "uint256",
          "name": "credits",
          "type": "uint256"
        },
        {
          "internalType": "bool",
          "name": "exists",
          "type": "bool"
        }
      ],
      "stateMutability": "view",
      "type": "function"
    }
  ],
  "bytecode": "0x6080604052348015600f57600080fd5b50600260008080815260200190815260200160002081905550600560008060018152602001908152602001600020819055506003600080600281526020019081526020016000208190555061449d806100696000396000f3fe608060405234801561001057600080fd5b50600436106101215760003560e01c80636f77926b116100ad578063b337cf7411610071578063b337cf741461036c578063c58343ef1461039c578063cc1e0359146103cc578063da8beccd146103e8578063f82f7bdd1461041857610121565b80636f77926b1461028057806381b26dda146102b057806381d12c58146102e05780639d20aaea14610318578063a87430ba1461033657610121565b8063349573d0116100f4578063349573d0146101b15780634ba1f098146101e1578063502c9bd5146101fd57806353f5149a1461022d5780635badbe4c1461026257610121565b80631d2e4afd146101265780631f4ac129146101425780632b28cd2c146101775780632e2ce48c14610193575b600080fd5b610140600480360381019061013b9190613178565b610434565b005b61015c60048036038101906101579190613284565b610669565b60405161016e96959493929190613361565b60405180910390f35b610191600480360381019061018c91906133c9565b61078a565b005b61019b610d0e565b6040516101a8919061344c565b60405180910390f35b6101cb60048036038101906101c69190613467565b610d13565b6040516101d8919061344c565b60405180910390f35b6101fb60048036038101906101f69190613467565b610d2b565b005b61021760048036038101906102129190613467565b61117b565b6040516102249190613494565b60405180910390f35b610247600480360381019061024291906134af565b6111ba565b60405161025996959493929190613361565b60405180910390f35b61026a6112db565b604051610277919061344c565b60405180910390f35b61029a600480360381019061029591906134ef565b6112e1565b6040516102a79190613633565b60405180910390f35b6102ca60048036038101906102c591906134ef565b6114a1565b6040516102d7919061344c565b60405180910390f35b6102fa60048036038101906102f59190613467565b6114ed565b60405161030f999897969594939291906136cc565b60405180910390f35b610320611720565b60405161032d9190613921565b60405180910390f35b610350600480360381019061034b91906134ef565b611b81565b6040516103639796959493929190613952565b60405180910390f35b610386600480360381019061038191906134ef565b611ce0565b6040516103939190613921565b60405180910390f35b6103b660048036038101906103b19190613467565b612251565b6040516103c39190613aa2565b60405180910390f35b6103e660048036038101906103e19190613467565b61253a565b005b61040260048036038101906103fd9190613467565b612713565b60405161040f919061344c565b60405180910390f35b610432600480360381019061042d9190613ac4565b61272f565b005b600160003373ffffffffffffffffffffffffffffffffffffffff1673ffffffffffffffffffffffffffffffffffffffff16815260200190815260200160002060060160009054906101000a900460ff16156104c4576040517f08c379a00000000000000000000000000000000000000000000000000000000081526004016104bb90613bcb565b60405180910390fd5b6040518060e00160405280838152602001828152602001603281526020016000815260200160008152602001600a815260200160011515815250600160003373ffffffffffffffffffffffffffffffffffffffff1673ffffffffffffffffffffffffffffffffffffffff16815260200190815260200160002060008201518160000190816105529190613df7565b5060208201518160010190816105689190613df7565b5060408201518160020155606082015181600301556080820151816004015560a0820151816005015560c08201518160060160006101000a81548160ff0219169083151502179055509050506006339080600181540180825580915050600190039060005260206000200160009091909190916101000a81548173ffffffffffffffffffffffffffffffffffffffff021916908373ffffffffffffffffffffffffffffffffffffffff1602179055503373ffffffffffffffffffffffffffffffffffffffff167f48cac28ad4dc618e15f4c2dd5e97751182f166de97b25618318b2112aa951a2f8360405161065d9190613ec9565b60405180910390a25050565b6004602052816000526040600020818154811061068557600080fd5b9060005260206000209060060201600091509150508060000160009054906101000a900473ffffffffffffffffffffffffffffffffffffffff16908060010160009054906101000a900473ffffffffffffffffffffffffffffffffffffffff169080600201549080600301549080600401805461070190613c1a565b80601f016020809104026020016040519081016040528092919081815260200182805461072d90613c1a565b801561077a5780601f1061074f5761010080835404028352916020019161077a565b820191906000526020600020905b81548152906001019060200180831161075d57829003601f168201915b5050505050908060050154905086565b6001821015801561079c575060058211155b6107db576040517f08c379a00000000000000000000000000000000000000000000000000000000081526004016107d290613f37565b60405180910390fd5b60006002600086815260200190815260200160002090508060010160009054906101000a900473ffffffffffffffffffffffffffffffffffffffff1673ffffffffffffffffffffffffffffffffffffffff163373ffffffffffffffffffffffffffffffffffffffff161480156108a057508060060160019054906101000a900473ffffffffffffffffffffffffffffffffffffffff1673ffffffffffffffffffffffffffffffffffffffff168473ffffffffffffffffffffffffffffffffffffffff16145b8061095557508060060160019054906101000a900473ffffffffffffffffffffffffffffffffffffffff1673ffffffffffffffffffffffffffffffffffffffff163373ffffffffffffffffffffffffffffffffffffffff1614801561095457508060010160009054906101000a900473ffffffffffffffffffffffffffffffffffffffff1673ffffffffffffffffffffffffffffffffffffffff168473ffffffffffffffffffffffffffffffffffffffff16145b5b610994576040517f08c379a000000000000000000000000000000000000000000000000000000000815260040161098b90613fa3565b60405180910390fd5b600260038111156109a8576109a7613655565b5b8160060160009054906101000a900460ff1660038111156109cc576109cb613655565b5b14610a0c576040517f08c379a0000000000000000000000000000000000000000000000000000000008152600401610a039061400f565b60405180910390fd5b60006040518060c001604052803373ffffffffffffffffffffffffffffffffffffffff1681526020018673ffffffffffffffffffffffffffffffffffffffff1681526020018781526020018581526020018481526020014281525090506003600087815260200190815260200160002081908060018154018082558091505060019003906000526020600020906006020160009091909190915060008201518160000160006101000a81548173ffffffffffffffffffffffffffffffffffffffff021916908373ffffffffffffffffffffffffffffffffffffffff16021790555060208201518160010160006101000a81548173ffffffffffffffffffffffffffffffffffffffff021916908373ffffffffffffffffffffffffffffffffffffffff16021790555060408201518160020155606082015181600301556080820151816004019081610b5d9190613df7565b5060a082015181600501555050600460008673ffffffffffffffffffffffffffffffffffffffff1673ffffffffffffffffffffffffffffffffffffffff16815260200190815260200160002081908060018154018082558091505060019003906000526020600020906006020160009091909190915060008201518160000160006101000a81548173ffffffffffffffffffffffffffffffffffffffff021916908373ffffffffffffffffffffffffffffffffffffffff16021790555060208201518160010160006101000a81548173ffffffffffffffffffffffffffffffffffffffff021916908373ffffffffffffffffffffffffffffffffffffffff16021790555060408201518160020155606082015181600301556080820151816004019081610c8a9190613df7565b5060a082015181600501555050610ca085612c9f565b8473ffffffffffffffffffffffffffffffffffffffff163373ffffffffffffffffffffffffffffffffffffffff16877fcc68f6b885ad4418f567f9c1f47e4742dacabd3f83542d7209afeb877f12b41287604051610cfe919061344c565b60405180910390a4505050505050565b600181565b60006020528060005260406000206000915090505481565b600160003373ffffffffffffffffffffffffffffffffffffffff1673ffffffffffffffffffffffffffffffffffffffff16815260200190815260200160002060060160009054906101000a900460ff16610ef1576040518060e00160405280604051806020016040528060008152508152602001604051806020016040528060008152508152602001603281526020016000815260200160008152602001600a815260200160011515815250600160003373ffffffffffffffffffffffffffffffffffffffff1673ffffffffffffffffffffffffffffffffffffffff1681526020019081526020016000206000820151816000019081610e2b9190613df7565b506020820151816001019081610e419190613df7565b5060408201518160020155606082015181600301556080820151816004015560a0820151816005015560c08201518160060160006101000a81548160ff0219169083151502179055509050506006339080600181540180825580915050600190039060005260206000200160009091909190916101000a81548173ffffffffffffffffffffffffffffffffffffffff021916908373ffffffffffffffffffffffffffffffffffffffff1602179055505b600060026000838152602001908152602001600020905060006003811115610f1c57610f1b613655565b5b8160060160009054906101000a900460ff166003811115610f4057610f3f613655565b5b14610f80576040517f08c379a0000000000000000000000000000000000000000000000000000000008152600401610f779061407b565b60405180910390fd5b3373ffffffffffffffffffffffffffffffffffffffff168160010160009054906101000a900473ffffffffffffffffffffffffffffffffffffffff1673ffffffffffffffffffffffffffffffffffffffff1603611012576040517f08c379a0000000000000000000000000000000000000000000000000000000008152600401611009906140e7565b60405180910390fd5b338160060160016101000a81548173ffffffffffffffffffffffffffffffffffffffff021916908373ffffffffffffffffffffffffffffffffffffffff16021790555060018160060160006101000a81548160ff0219169083600381111561107d5761107c613655565b5b0217905550600160003373ffffffffffffffffffffffffffffffffffffffff1673ffffffffffffffffffffffffffffffffffffffff16815260200190815260200160002060030160008154809291906110d590614136565b919050555060018060003373ffffffffffffffffffffffffffffffffffffffff1673ffffffffffffffffffffffffffffffffffffffff168152602001908152602001600020600501600082825461112c919061417e565b925050819055503373ffffffffffffffffffffffffffffffffffffffff16827fe733da1781f77372a457e80dfecfd78991cc213a17d76c673e13d5d10e172a2260405160405180910390a35050565b6006818154811061118b57600080fd5b906000526020600020016000915054906101000a900473ffffffffffffffffffffffffffffffffffffffff1681565b600360205281600052604060002081815481106111d657600080fd5b9060005260206000209060060201600091509150508060000160009054906101000a900473ffffffffffffffffffffffffffffffffffffffff16908060010160009054906101000a900473ffffffffffffffffffffffffffffffffffffffff169080600201549080600301549080600401805461125290613c1a565b80601f016020809104026020016040519081016040528092919081815260200182805461127e90613c1a565b80156112cb5780601f106112a0576101008083540402835291602001916112cb565b820191906000526020600020905b8154815290600101906020018083116112ae57829003601f168201915b5050505050908060050154905086565b60055481565b6112e9612f55565b600160008373ffffffffffffffffffffffffffffffffffffffff1673ffffffffffffffffffffffffffffffffffffffff1681526020019081526020016000206040518060e001604052908160008201805461134390613c1a565b80601f016020809104026020016040519081016040528092919081815260200182805461136f90613c1a565b80156113bc5780601f10611391576101008083540402835291602001916113bc565b820191906000526020600020905b81548152906001019060200180831161139f57829003601f168201915b505050505081526020016001820180546113d590613c1a565b80601f016020809104026020016040519081016040528092919081815260200182805461140190613c1a565b801561144e5780601f106114235761010080835404028352916020019161144e565b820191906000526020600020905b81548152906001019060200180831161143157829003601f168201915b50505050508152602001600282015481526020016003820154815260200160048201548152602001600582015481526020016006820160009054906101000a900460ff1615151515815250509050919050565b6000600160008373ffffffffffffffffffffffffffffffffffffffff1673ffffffffffffffffffffffffffffffffffffffff168152602001908152602001600020600501549050919050565b60026020528060005260406000206000915090508060000154908060010160009054906101000a900473ffffffffffffffffffffffffffffffffffffffff169080600201805461153c90613c1a565b80601f016020809104026020016040519081016040528092919081815260200182805461156890613c1a565b80156115b55780601f1061158a576101008083540402835291602001916115b5565b820191906000526020600020905b81548152906001019060200180831161159857829003601f168201915b5050505050908060030180546115ca90613c1a565b80601f01602080910402602001604051908101604052809291908181526020018280546115f690613c1a565b80156116435780601f1061161857610100808354040283529160200191611643565b820191906000526020600020905b81548152906001019060200180831161162657829003601f168201915b50505050509080600401805461165890613c1a565b80601f016020809104026020016040519081016040528092919081815260200182805461168490613c1a565b80156116d15780601f106116a6576101008083540402835291602001916116d1565b820191906000526020600020905b8154815290600101906020018083116116b457829003601f168201915b5050505050908060050154908060060160009054906101000a900460ff16908060060160019054906101000a900473ffffffffffffffffffffffffffffffffffffffff16908060070154905089565b6060600080600190505b60055481116117a4576000600381111561174757611746613655565b5b6002600083815260200190815260200160002060060160009054906101000a900460ff16600381111561177d5761177c613655565b5b0361179157818061178d90614136565b9250505b808061179c90614136565b91505061172a565b5060008167ffffffffffffffff8111156117c1576117c061304d565b5b6040519080825280602002602001820160405280156117fa57816020015b6117e7612f94565b8152602001906001900390816117df5790505b509050600080600190505b6005548111611b77576000600381111561182257611821613655565b5b6002600083815260200190815260200160002060060160009054906101000a900460ff16600381111561185857611857613655565b5b03611b64576002600082815260200190815260200160002060405180610120016040529081600082015481526020016001820160009054906101000a900473ffffffffffffffffffffffffffffffffffffffff1673ffffffffffffffffffffffffffffffffffffffff1673ffffffffffffffffffffffffffffffffffffffff1681526020016002820180546118ec90613c1a565b80601f016020809104026020016040519081016040528092919081815260200182805461191890613c1a565b80156119655780601f1061193a57610100808354040283529160200191611965565b820191906000526020600020905b81548152906001019060200180831161194857829003601f168201915b5050505050815260200160038201805461197e90613c1a565b80601f01602080910402602001604051908101604052809291908181526020018280546119aa90613c1a565b80156119f75780601f106119cc576101008083540402835291602001916119f7565b820191906000526020600020905b8154815290600101906020018083116119da57829003601f168201915b50505050508152602001600482018054611a1090613c1a565b80601f0160208091040260200160405190810160405280929190818152602001828054611a3c90613c1a565b8015611a895780601f10611a5e57610100808354040283529160200191611a89565b820191906000526020600020905b815481529060010190602001808311611a6c57829003601f168201915b50505050508152602001600582015481526020016006820160009054906101000a900460ff166003811115611ac157611ac0613655565b5b6003811115611ad357611ad2613655565b5b81526020016006820160019054906101000a900473ffffffffffffffffffffffffffffffffffffffff1673ffffffffffffffffffffffffffffffffffffffff1673ffffffffffffffffffffffffffffffffffffffff168152602001600782015481525050838381518110611b4a57611b496141b2565b5b60200260200101819052508180611b6090614136565b9250505b8080611b6f90614136565b915050611805565b5081935050505090565b6001602052806000526040600020600091509050806000018054611ba490613c1a565b80601f0160208091040260200160405190810160405280929190818152602001828054611bd090613c1a565b8015611c1d5780601f10611bf257610100808354040283529160200191611c1d565b820191906000526020600020905b815481529060010190602001808311611c0057829003601f168201915b505050505090806001018054611c3290613c1a565b80601f0160208091040260200160405190810160405280929190818152602001828054611c5e90613c1a565b8015611cab5780601f10611c8057610100808354040283529160200191611cab565b820191906000526020600020905b815481529060010190602001808311611c8e57829003601f168201915b5050505050908060020154908060030154908060040154908060050154908060060160009054906101000a900460ff16905087565b6060600080600190505b6005548111611deb578373ffffffffffffffffffffffffffffffffffffffff166002600083815260200190815260200160002060010160009054906101000a900473ffffffffffffffffffffffffffffffffffffffff1673ffffffffffffffffffffffffffffffffffffffff161480611dc457508373ffffffffffffffffffffffffffffffffffffffff166002600083815260200190815260200160002060060160019054906101000a900473ffffffffffffffffffffffffffffffffffffffff1673ffffffffffffffffffffffffffffffffffffffff16145b15611dd8578180611dd490614136565b9250505b8080611de390614136565b915050611cea565b5060008167ffffffffffffffff811115611e0857611e0761304d565b5b604051908082528060200260200182016040528015611e4157816020015b611e2e612f94565b815260200190600190039081611e265790505b509050600080600190505b6005548111612245578573ffffffffffffffffffffffffffffffffffffffff166002600083815260200190815260200160002060010160009054906101000a900473ffffffffffffffffffffffffffffffffffffffff1673ffffffffffffffffffffffffffffffffffffffff161480611f2657508573ffffffffffffffffffffffffffffffffffffffff166002600083815260200190815260200160002060060160019054906101000a900473ffffffffffffffffffffffffffffffffffffffff1673ffffffffffffffffffffffffffffffffffffffff16145b15612232576002600082815260200190815260200160002060405180610120016040529081600082015481526020016001820160009054906101000a900473ffffffffffffffffffffffffffffffffffffffff1673ffffffffffffffffffffffffffffffffffffffff1673ffffffffffffffffffffffffffffffffffffffff168152602001600282018054611fba90613c1a565b80601f0160208091040260200160405190810160405280929190818152602001828054611fe690613c1a565b80156120335780601f1061200857610100808354040283529160200191612033565b820191906000526020600020905b81548152906001019060200180831161201657829003601f168201915b5050505050815260200160038201805461204c90613c1a565b80601f016020809104026020016040519081016040528092919081815260200182805461207890613c1a565b80156120c55780601f1061209a576101008083540402835291602001916120c5565b820191906000526020600020905b8154815290600101906020018083116120a857829003601f168201915b505050505081526020016004820180546120de90613c1a565b80601f016020809104026020016040519081016040528092919081815260200182805461210a90613c1a565b80156121575780601f1061212c57610100808354040283529160200191612157565b820191906000526020600020905b81548152906001019060200180831161213a57829003601f168201915b50505050508152602001600582015481526020016006820160009054906101000a900460ff16600381111561218f5761218e613655565b5b60038111156121a1576121a0613655565b5b81526020016006820160019054906101000a900473ffffffffffffffffffffffffffffffffffffffff1673ffffffffffffffffffffffffffffffffffffffff1673ffffffffffffffffffffffffffffffffffffffff168152602001600782015481525050838381518110612218576122176141b2565b5b6020026020010181905250818061222e90614136565b9250505b808061223d90614136565b915050611e4c565b50819350505050919050565b612259612f94565b6002600083815260200190815260200160002060405180610120016040529081600082015481526020016001820160009054906101000a900473ffffffffffffffffffffffffffffffffffffffff1673ffffffffffffffffffffffffffffffffffffffff1673ffffffffffffffffffffffffffffffffffffffff1681526020016002820180546122e890613c1a565b80601f016020809104026020016040519081016040528092919081815260200182805461231490613c1a565b80156123615780601f1061233657610100808354040283529160200191612361565b820191906000526020600020905b81548152906001019060200180831161234457829003601f168201915b5050505050815260200160038201805461237a90613c1a565b80601f01602080910402602001604051908101604052809291908181526020018280546123a690613c1a565b80156123f35780601f106123c8576101008083540402835291602001916123f3565b820191906000526020600020905b8154815290600101906020018083116123d657829003601f168201915b5050505050815260200160048201805461240c90613c1a565b80601f016020809104026020016040519081016040528092919081815260200182805461243890613c1a565b80156124855780601f1061245a57610100808354040283529160200191612485565b820191906000526020600020905b81548152906001019060200180831161246857829003601f168201915b50505050508152602001600582015481526020016006820160009054906101000a900460ff1660038111156124bd576124bc613655565b5b60038111156124cf576124ce613655565b5b81526020016006820160019054906101000a900473ffffffffffffffffffffffffffffffffffffffff1673ffffffffffffffffffffffffffffffffffffffff1673ffffffffffffffffffffffffffffffffffffffff1681526020016007820154815250509050919050565b60006002600083815260200190815260200160002090508060010160009054906101000a900473ffffffffffffffffffffffffffffffffffffffff1673ffffffffffffffffffffffffffffffffffffffff163373ffffffffffffffffffffffffffffffffffffffff1614806125fe57508060060160019054906101000a900473ffffffffffffffffffffffffffffffffffffffff1673ffffffffffffffffffffffffffffffffffffffff163373ffffffffffffffffffffffffffffffffffffffff16145b61263d576040517f08c379a00000000000000000000000000000000000000000000000000000000081526004016126349061422d565b60405180910390fd5b6001600381111561265157612650613655565b5b8160060160009054906101000a900460ff16600381111561267557612674613655565b5b146126b5576040517f08c379a00000000000000000000000000000000000000000000000000000000081526004016126ac90614299565b60405180910390fd5b60028160060160006101000a81548160ff021916908360038111156126dd576126dc613655565b5b0217905550817fb26fe08e4e51c01e5cffff5f4887249599779aa0d4f8636ff4e7cd4831b495ed60405160405180910390a25050565b6000806000838152602001908152602001600020549050919050565b600160003373ffffffffffffffffffffffffffffffffffffffff1673ffffffffffffffffffffffffffffffffffffffff16815260200190815260200160002060060160009054906101000a900460ff166128e6576040518060e00160405280604051806020016040528060008152508152602001838152602001603281526020016000815260200160008152602001600a815260200160011515815250600160003373ffffffffffffffffffffffffffffffffffffffff1673ffffffffffffffffffffffffffffffffffffffff16815260200190815260200160002060008201518160000190816128209190613df7565b5060208201518160010190816128369190613df7565b5060408201518160020155606082015181600301556080820151816004015560a0820151816005015560c08201518160060160006101000a81548160ff0219169083151502179055509050506006339080600181540180825580915050600190039060005260206000200160009091909190916101000a81548173ffffffffffffffffffffffffffffffffffffffff021916908373ffffffffffffffffffffffffffffffffffffffff1602179055505b600080600083815260200190815260200160002054905060008111612940576040517f08c379a000000000000000000000000000000000000000000000000000000000815260040161293790614305565b60405180910390fd5b80600160003373ffffffffffffffffffffffffffffffffffffffff1673ffffffffffffffffffffffffffffffffffffffff1681526020019081526020016000206005015410156129c5576040517f08c379a00000000000000000000000000000000000000000000000000000000081526004016129bc90614371565b60405180910390fd5b80600160003373ffffffffffffffffffffffffffffffffffffffff1673ffffffffffffffffffffffffffffffffffffffff1681526020019081526020016000206005016000828254612a179190614391565b9250508190555060056000815480929190612a3190614136565b919050555060405180610120016040528060055481526020013373ffffffffffffffffffffffffffffffffffffffff16815260200186815260200185815260200184815260200142815260200160006003811115612a9257612a91613655565b5b8152602001600073ffffffffffffffffffffffffffffffffffffffff168152602001838152506002600060055481526020019081526020016000206000820151816000015560208201518160010160006101000a81548173ffffffffffffffffffffffffffffffffffffffff021916908373ffffffffffffffffffffffffffffffffffffffff1602179055506040820151816002019081612b339190613df7565b506060820151816003019081612b499190613df7565b506080820151816004019081612b5f9190613df7565b5060a0820151816005015560c08201518160060160006101000a81548160ff02191690836003811115612b9557612b94613655565b5b021790555060e08201518160060160016101000a81548173ffffffffffffffffffffffffffffffffffffffff021916908373ffffffffffffffffffffffffffffffffffffffff1602179055506101008201518160070155905050600160003373ffffffffffffffffffffffffffffffffffffffff1673ffffffffffffffffffffffffffffffffffffffff1681526020019081526020016000206004016000815480929190612c4290614136565b91905055503373ffffffffffffffffffffffffffffffffffffffff166005547f98211bd435874dca36f94fe4bd56dc2d934b75c5c6bcab9f7e7b079addc48b4e87604051612c909190613ec9565b60405180910390a35050505050565b6000600460008373ffffffffffffffffffffffffffffffffffffffff1673ffffffffffffffffffffffffffffffffffffffff168152602001908152602001600020805480602002602001604051908101604052809291908181526020016000905b82821015612e8e57838290600052602060002090600602016040518060c00160405290816000820160009054906101000a900473ffffffffffffffffffffffffffffffffffffffff1673ffffffffffffffffffffffffffffffffffffffff1673ffffffffffffffffffffffffffffffffffffffff1681526020016001820160009054906101000a900473ffffffffffffffffffffffffffffffffffffffff1673ffffffffffffffffffffffffffffffffffffffff1673ffffffffffffffffffffffffffffffffffffffff1681526020016002820154815260200160038201548152602001600482018054612df390613c1a565b80601f0160208091040260200160405190810160405280929190818152602001828054612e1f90613c1a565b8015612e6c5780601f10612e4157610100808354040283529160200191612e6c565b820191906000526020600020905b815481529060010190602001808311612e4f57829003601f168201915b5050505050815260200160058201548152505081526020019060010190612d00565b5050505090506000815103612ea35750612f52565b6000805b8251811015612ee957828181518110612ec357612ec26141b2565b5b60200260200101516060015182612eda919061417e565b91508080600101915050612ea7565b5060008251601483612efb91906143c5565b612f059190614436565b905080600160008673ffffffffffffffffffffffffffffffffffffffff1673ffffffffffffffffffffffffffffffffffffffff168152602001908152602001600020600201819055505050505b50565b6040518060e001604052806060815260200160608152602001600081526020016000815260200160008152602001600081526020016000151581525090565b60405180610120016040528060008152602001600073ffffffffffffffffffffffffffffffffffffffff1681526020016060815260200160608152602001606081526020016000815260200160006003811115612ff457612ff3613655565b5b8152602001600073ffffffffffffffffffffffffffffffffffffffff168152602001600081525090565b6000604051905090565b600080fd5b600080fd5b600080fd5b600080fd5b6000601f19601f8301169050919050565b7f4e487b7100000000000000000000000000000000000000000000000000000000600052604160045260246000fd5b6130858261303c565b810181811067ffffffffffffffff821117156130a4576130a361304d565b5b80604052505050565b60006130b761301e565b90506130c3828261307c565b919050565b600067ffffffffffffffff8211156130e3576130e261304d565b5b6130ec8261303c565b9050602081019050919050565b82818337600083830152505050565b600061311b613116846130c8565b6130ad565b90508281526020810184848401111561313757613136613037565b5b6131428482856130f9565b509392505050565b600082601f83011261315f5761315e613032565b5b813561316f848260208601613108565b91505092915050565b6000806040838503121561318f5761318e613028565b5b600083013567ffffffffffffffff8111156131ad576131ac61302d565b5b6131b98582860161314a565b925050602083013567ffffffffffffffff8111156131da576131d961302d565b5b6131e68582860161314a565b9150509250929050565b600073ffffffffffffffffffffffffffffffffffffffff82169050919050565b600061321b826131f0565b9050919050565b61322b81613210565b811461323657600080fd5b50565b60008135905061324881613222565b92915050565b6000819050919050565b6132618161324e565b811461326c57600080fd5b50565b60008135905061327e81613258565b92915050565b6000806040838503121561329b5761329a613028565b5b60006132a985828601613239565b92505060206132ba8582860161326f565b9150509250929050565b6132cd81613210565b82525050565b6132dc8161324e565b82525050565b600081519050919050565b600082825260208201905092915050565b60005b8381101561331c578082015181840152602081019050613301565b60008484015250505050565b6000613333826132e2565b61333d81856132ed565b935061334d8185602086016132fe565b6133568161303c565b840191505092915050565b600060c08201905061337660008301896132c4565b61338360208301886132c4565b61339060408301876132d3565b61339d60608301866132d3565b81810360808301526133af8185613328565b90506133be60a08301846132d3565b979650505050505050565b600080600080608085870312156133e3576133e2613028565b5b60006133f18782880161326f565b945050602061340287828801613239565b93505060406134138782880161326f565b925050606085013567ffffffffffffffff8111156134345761343361302d565b5b6134408782880161314a565b91505092959194509250565b600060208201905061346160008301846132d3565b92915050565b60006020828403121561347d5761347c613028565b5b600061348b8482850161326f565b91505092915050565b60006020820190506134a960008301846132c4565b92915050565b600080604083850312156134c6576134c5613028565b5b60006134d48582860161326f565b92505060206134e58582860161326f565b9150509250929050565b60006020828403121561350557613504613028565b5b600061351384828501613239565b91505092915050565b600082825260208201905092915050565b6000613538826132e2565b613542818561351c565b93506135528185602086016132fe565b61355b8161303c565b840191505092915050565b61356f8161324e565b82525050565b60008115159050919050565b61358a81613575565b82525050565b600060e08301600083015184820360008601526135ad828261352d565b915050602083015184820360208601526135c7828261352d565b91505060408301516135dc6040860182613566565b5060608301516135ef6060860182613566565b5060808301516136026080860182613566565b5060a083015161361560a0860182613566565b5060c083015161362860c0860182613581565b508091505092915050565b6000602082019050818103600083015261364d8184613590565b905092915050565b7f4e487b7100000000000000000000000000000000000000000000000000000000600052602160045260246000fd5b6004811061369557613694613655565b5b50565b60008190506136a682613684565b919050565b60006136b682613698565b9050919050565b6136c6816136ab565b82525050565b6000610120820190506136e2600083018c6132d3565b6136ef602083018b6132c4565b8181036040830152613701818a613328565b905081810360608301526137158189613328565b905081810360808301526137298188613328565b905061373860a08301876132d3565b61374560c08301866136bd565b61375260e08301856132c4565b6137606101008301846132d3565b9a9950505050505050505050565b600081519050919050565b600082825260208201905092915050565b6000819050602082019050919050565b6137a381613210565b82525050565b6137b2816136ab565b82525050565b6000610120830160008301516137d16000860182613566565b5060208301516137e4602086018261379a565b50604083015184820360408601526137fc828261352d565b91505060608301518482036060860152613816828261352d565b91505060808301518482036080860152613830828261352d565b91505060a083015161384560a0860182613566565b5060c083015161385860c08601826137a9565b5060e083015161386b60e086018261379a565b50610100830151613880610100860182613566565b508091505092915050565b600061389783836137b8565b905092915050565b6000602082019050919050565b60006138b78261376e565b6138c18185613779565b9350836020820285016138d38561378a565b8060005b8581101561390f57848403895281516138f0858261388b565b94506138fb8361389f565b925060208a019950506001810190506138d7565b50829750879550505050505092915050565b6000602082019050818103600083015261393b81846138ac565b905092915050565b61394c81613575565b82525050565b600060e082019050818103600083015261396c818a613328565b905081810360208301526139808189613328565b905061398f60408301886132d3565b61399c60608301876132d3565b6139a960808301866132d3565b6139b660a08301856132d3565b6139c360c0830184613943565b98975050505050505050565b6000610120830160008301516139e86000860182613566565b5060208301516139fb602086018261379a565b5060408301518482036040860152613a13828261352d565b91505060608301518482036060860152613a2d828261352d565b91505060808301518482036080860152613a47828261352d565b91505060a0830151613a5c60a0860182613566565b5060c0830151613a6f60c08601826137a9565b5060e0830151613a8260e086018261379a565b50610100830151613a97610100860182613566565b508091505092915050565b60006020820190508181036000830152613abc81846139cf565b905092915050565b60008060008060808587031215613ade57613add613028565b5b600085013567ffffffffffffffff811115613afc57613afb61302d565b5b613b088782880161314a565b945050602085013567ffffffffffffffff811115613b2957613b2861302d565b5b613b358782880161314a565b935050604085013567ffffffffffffffff811115613b5657613b5561302d565b5b613b628782880161314a565b9250506060613b738782880161326f565b91505092959194509250565b7f5573657220616c72656164792072656769737465726564000000000000000000600082015250565b6000613bb56017836132ed565b9150613bc082613b7f565b602082019050919050565b60006020820190508181036000830152613be481613ba8565b9050919050565b7f4e487b7100000000000000000000000000000000000000000000000000000000600052602260045260246000fd5b60006002820490506001821680613c3257607f821691505b602082108103613c4557613c44613beb565b5b50919050565b60008190508160005260206000209050919050565b60006020601f8301049050919050565b600082821b905092915050565b600060088302613cad7fffffffffffffffffffffffffffffffffffffffffffffffffffffffffffffffff82613c70565b613cb78683613c70565b95508019841693508086168417925050509392505050565b6000819050919050565b6000613cf4613cef613cea8461324e565b613ccf565b61324e565b9050919050565b6000819050919050565b613d0e83613cd9565b613d22613d1a82613cfb565b848454613c7d565b825550505050565b600090565b613d37613d2a565b613d42818484613d05565b505050565b5b81811015613d6657613d5b600082613d2f565b600181019050613d48565b5050565b601f821115613dab57613d7c81613c4b565b613d8584613c60565b81016020851015613d94578190505b613da8613da085613c60565b830182613d47565b50505b505050565b600082821c905092915050565b6000613dce60001984600802613db0565b1980831691505092915050565b6000613de78383613dbd565b9150826002028217905092915050565b613e00826132e2565b67ffffffffffffffff811115613e1957613e1861304d565b5b613e238254613c1a565b613e2e828285613d6a565b600060209050601f831160018114613e615760008415613e4f578287015190505b613e598582613ddb565b865550613ec1565b601f198416613e6f86613c4b565b60005b82811015613e9757848901518255600182019150602085019450602081019050613e72565b86831015613eb45784890151613eb0601f891682613dbd565b8355505b6001600288020188555050505b505050505050565b60006020820190508181036000830152613ee38184613328565b905092915050565b7f526174696e67206d75737420626520312d350000000000000000000000000000600082015250565b6000613f216012836132ed565b9150613f2c82613eeb565b602082019050919050565b60006020820190508181036000830152613f5081613f14565b9050919050565b7f496e76616c696420726576696577000000000000000000000000000000000000600082015250565b6000613f8d600e836132ed565b9150613f9882613f57565b602082019050919050565b60006020820190508181036000830152613fbc81613f80565b9050919050565b7f52657175657374206e6f7420636f6d706c657465640000000000000000000000600082015250565b6000613ff96015836132ed565b915061400482613fc3565b602082019050919050565b6000602082019050818103600083015261402881613fec565b9050919050565b7f52657175657374206e6f7420617661696c61626c650000000000000000000000600082015250565b60006140656015836132ed565b91506140708261402f565b602082019050919050565b6000602082019050818103600083015261409481614058565b9050919050565b7f43616e6e6f742068656c7020796f757273656c66000000000000000000000000600082015250565b60006140d16014836132ed565b91506140dc8261409b565b602082019050919050565b60006020820190508181036000830152614100816140c4565b9050919050565b7f4e487b7100000000000000000000000000000000000000000000000000000000600052601160045260246000fd5b60006141418261324e565b91507fffffffffffffffffffffffffffffffffffffffffffffffffffffffffffffffff820361417357614172614107565b5b600182019050919050565b60006141898261324e565b91506141948361324e565b92508282019050808211156141ac576141ab614107565b5b92915050565b7f4e487b7100000000000000000000000000000000000000000000000000000000600052603260045260246000fd5b7f4e6f7420617574686f72697a6564000000000000000000000000000000000000600082015250565b6000614217600e836132ed565b9150614222826141e1565b602082019050919050565b600060208201905081810360008301526142468161420a565b9050919050565b7f52657175657374206e6f74206d61746368656400000000000000000000000000600082015250565b60006142836013836132ed565b915061428e8261424d565b602082019050919050565b600060208201905081810360008301526142b281614276565b9050919050565b7f496e76616c69642068656c702074797065000000000000000000000000000000600082015250565b60006142ef6011836132ed565b91506142fa826142b9565b602082019050919050565b6000602082019050818103600083015261431e816142e2565b9050919050565b7f496e73756666696369656e742063726564697473000000000000000000000000600082015250565b600061435b6014836132ed565b915061436682614325565b602082019050919050565b6000602082019050818103600083015261438a8161434e565b9050919050565b600061439c8261324e565b91506143a78361324e565b92508282039050818111156143bf576143be614107565b5b92915050565b60006143d08261324e565b91506143db8361324e565b92508282026143e98161324e565b91508282048414831517614400576143ff614107565b5b5092915050565b7f4e487b7100000000000000000000000000000000000000000000000000000000600052601260045260246000fd5b60006144418261324e565b915061444c8361324e565b92508261445c5761445b614407565b5b82820490509291505056fea264697066735822122050dfabd418c30e39ca8e87a05604c05d251afb0ca429fdc004302a5928262c3564736f6c634300081c0033",
  "linkReferences": {},
  "deployedLinkReferences": {}
}