{"abi":[{"type":"function","name":"EXPECTED_PROOF_SIZE","inputs":[],"outputs":[{"name":"","type":"uint256","internalType":"uint256"}],"stateMutability":"view"},{"type":"function","name":"MAX_PROOF_TYPES","inputs":[],"outputs":[{"name":"","type":"uint256","internalType":"uint256"}],"stateMutability":"view"},{"type":"function","name":"PROOF_ELEMENT_SIZE","inputs":[],"outputs":[{"name":"","type":"uint256","internalType":"uint256"}],"stateMutability":"view"},{"type":"function","name":"addKeyManager","inputs":[{"name":"keyManager","type":"address","internalType":"address"}],"outputs":[],"stateMutability":"nonpayable"},{"type":"function","name":"batchConfig","inputs":[],"outputs":[{"name":"maxBatchSize","type":"uint256","internalType":"uint256"},{"name":"enabled","type":"bool","internalType":"bool"}],"stateMutability":"view"},{"type":"function","name":"batchVerifyProofs","inputs":[{"name":"proofs","type":"bytes[]","internalType":"bytes[]"},{"name":"proofTypes","type":"uint256[]","internalType":"uint256[]"},{"name":"publicInputs","type":"bytes32[]","internalType":"bytes32[]"}],"outputs":[{"name":"results","type":"bool[]","internalType":"bool[]"}],"stateMutability":"view"},{"type":"function","name":"circuitParams","inputs":[{"name":"","type":"uint256","internalType":"uint256"}],"outputs":[{"name":"publicInputCount","type":"uint256","internalType":"uint256"},{"name":"constraintCount","type":"uint256","internalType":"uint256"},{"name":"circuitHash","type":"bytes32","internalType":"bytes32"},{"name":"active","type":"bool","internalType":"bool"}],"stateMutability":"view"},{"type":"function","name":"deactivateVerificationKey","inputs":[{"name":"proofType","type":"uint256","internalType":"uint256"}],"outputs":[],"stateMutability":"nonpayable"},{"type":"function","name":"failedVerificationCounts","inputs":[{"name":"","type":"uint256","internalType":"uint256"}],"outputs":[{"name":"","type":"uint256","internalType":"uint256"}],"stateMutability":"view"},{"type":"function","name":"getCircuitParams","inputs":[{"name":"proofType","type":"uint256","internalType":"uint256"}],"outputs":[{"name":"params","type":"tuple","internalType":"struct ZKProofVerifier.CircuitParams","components":[{"name":"publicInputCount","type":"uint256","internalType":"uint256"},{"name":"constraintCount","type":"uint256","internalType":"uint256"},{"name":"circuitHash","type":"bytes32","internalType":"bytes32"},{"name":"active","type":"bool","internalType":"bool"}]}],"stateMutability":"view"},{"type":"function","name":"getVerificationKey","inputs":[{"name":"proofType","type":"uint256","internalType":"uint256"}],"outputs":[{"name":"vk","type":"tuple","internalType":"struct IZKProofVerifier.VerificationKey","components":[{"name":"proofType","type":"uint256","internalType":"uint256"},{"name":"vkHash","type":"bytes32","internalType":"bytes32"},{"name":"version","type":"uint256","internalType":"uint256"},{"name":"active","type":"bool","internalType":"bool"}]}],"stateMutability":"view"},{"type":"function","name":"getVerificationStats","inputs":[{"name":"proofType","type":"uint256","internalType":"uint256"}],"outputs":[{"name":"totalVerifications","type":"uint256","internalType":"uint256"},{"name":"failedVerifications","type":"uint256","internalType":"uint256"},{"name":"successRate","type":"uint256","internalType":"uint256"}],"stateMutability":"view"},{"type":"function","name":"getVersion","inputs":[],"outputs":[{"name":"","type":"string","internalType":"string"}],"stateMutability":"pure"},{"type":"function","name":"initialize","inputs":[{"name":"_owner","type":"address","internalType":"address"},{"name":"_keyManagers","type":"address[]","internalType":"address[]"}],"outputs":[],"stateMutability":"nonpayable"},{"type":"function","name":"isKeyManager","inputs":[{"name":"addr","type":"address","internalType":"address"}],"outputs":[{"name":"isManager","type":"bool","internalType":"bool"}],"stateMutability":"view"},{"type":"function","name":"keyManagers","inputs":[{"name":"","type":"address","internalType":"address"}],"outputs":[{"name":"","type":"bool","internalType":"bool"}],"stateMutability":"view"},{"type":"function","name":"owner","inputs":[],"outputs":[{"name":"","type":"address","internalType":"address"}],"stateMutability":"view"},{"type":"function","name":"pauseAllVerifications","inputs":[],"outputs":[],"stateMutability":"nonpayable"},{"type":"function","name":"removeKeyManager","inputs":[{"name":"keyManager","type":"address","internalType":"address"}],"outputs":[],"stateMutability":"nonpayable"},{"type":"function","name":"renounceOwnership","inputs":[],"outputs":[],"stateMutability":"nonpayable"},{"type":"function","name":"transferOwnership","inputs":[{"name":"newOwner","type":"address","internalType":"address"}],"outputs":[],"stateMutability":"nonpayable"},{"type":"function","name":"updateBatchConfig","inputs":[{"name":"maxBatchSize","type":"uint256","internalType":"uint256"},{"name":"enabled","type":"bool","internalType":"bool"}],"outputs":[],"stateMutability":"nonpayable"},{"type":"function","name":"updateCircuitParams","inputs":[{"name":"proofType","type":"uint256","internalType":"uint256"},{"name":"publicInputCount","type":"uint256","internalType":"uint256"},{"name":"constraintCount","type":"uint256","internalType":"uint256"},{"name":"circuitHash","type":"bytes32","internalType":"bytes32"}],"outputs":[],"stateMutability":"nonpayable"},{"type":"function","name":"updateVerificationKey","inputs":[{"name":"proofType","type":"uint256","internalType":"uint256"},{"name":"vkHash","type":"bytes32","internalType":"bytes32"}],"outputs":[],"stateMutability":"nonpayable"},{"type":"function","name":"verificationCounts","inputs":[{"name":"","type":"uint256","internalType":"uint256"}],"outputs":[{"name":"","type":"uint256","internalType":"uint256"}],"stateMutability":"view"},{"type":"function","name":"verificationKeys","inputs":[{"name":"","type":"uint256","internalType":"uint256"}],"outputs":[{"name":"proofType","type":"uint256","internalType":"uint256"},{"name":"vkHash","type":"bytes32","internalType":"bytes32"},{"name":"version","type":"uint256","internalType":"uint256"},{"name":"active","type":"bool","internalType":"bool"}],"stateMutability":"view"},{"type":"function","name":"verifyEmergencyProof","inputs":[{"name":"proof","type":"bytes","internalType":"bytes"},{"name":"emergencyHash","type":"bytes32","internalType":"bytes32"}],"outputs":[{"name":"isValid","type":"bool","internalType":"bool"}],"stateMutability":"view"},{"type":"function","name":"verifyExecutionAuthorization","inputs":[{"name":"proof","type":"bytes","internalType":"bytes"},{"name":"executor","type":"address","internalType":"address"},{"name":"operationHash","type":"bytes32","internalType":"bytes32"}],"outputs":[{"name":"isValid","type":"bool","internalType":"bool"}],"stateMutability":"view"},{"type":"function","name":"verifyGuardianIdentity","inputs":[{"name":"proof","type":"bytes","internalType":"bytes"},{"name":"publicInputHash","type":"bytes32","internalType":"bytes32"}],"outputs":[{"name":"isValid","type":"bool","internalType":"bool"}],"stateMutability":"view"},{"type":"event","name":"Initialized","inputs":[{"name":"version","type":"uint64","indexed":false,"internalType":"uint64"}],"anonymous":false},{"type":"event","name":"OwnershipTransferred","inputs":[{"name":"previousOwner","type":"address","indexed":true,"internalType":"address"},{"name":"newOwner","type":"address","indexed":true,"internalType":"address"}],"anonymous":false},{"type":"event","name":"ProofVerified","inputs":[{"name":"proofType","type":"uint256","indexed":true,"internalType":"uint256"},{"name":"publicInputHash","type":"bytes32","indexed":false,"internalType":"bytes32"},{"name":"result","type":"bool","indexed":false,"internalType":"bool"}],"anonymous":false},{"type":"event","name":"VerificationKeyUpdated","inputs":[{"name":"proofType","type":"uint256","indexed":true,"internalType":"uint256"},{"name":"vkHash","type":"bytes32","indexed":false,"internalType":"bytes32"},{"name":"version","type":"uint256","indexed":false,"internalType":"uint256"}],"anonymous":false},{"type":"error","name":"ArrayLengthMismatch","inputs":[]},{"type":"error","name":"InvalidInitialization","inputs":[]},{"type":"error","name":"InvalidProof","inputs":[{"name":"proofType","type":"uint256","internalType":"uint256"},{"name":"publicInputHash","type":"bytes32","internalType":"bytes32"}]},{"type":"error","name":"InvalidVerificationKey","inputs":[{"name":"proofType","type":"uint256","internalType":"uint256"}]},{"type":"error","name":"NotInitializing","inputs":[]},{"type":"error","name":"OwnableInvalidOwner","inputs":[{"name":"owner","type":"address","internalType":"address"}]},{"type":"error","name":"OwnableUnauthorizedAccount","inputs":[{"name":"account","type":"address","internalType":"address"}]},{"type":"error","name":"ReentrancyGuardReentrantCall","inputs":[]}],"bytecode":{"object":"0x60808060405234601557611412908161001a8239f35b5f80fdfe60806040526004361015610011575f80fd5b5f3560e01c80630d8e6e2c14610f6857806317b52af21461036e5780631e2a372d14610f2457806320a7ce1314610e9957806334c9d2f614610e635780633e7429c814610dff57806340bfabdf14610db057806354ea50da14610cd75780635960f63414610cad57806359df8f9f14610c6c5780635acefbf414610bb05780636142af8b14610b9657806361b307fd14610b355780636d45129814610b0c5780636fc8cfcf14610a7b578063715018a614610a145780638a94b59b146109d65780638da5cb5b146109a25780639468f7e614610921578063946d9204146105ac5780639957379314610591578063a117b69a146103ab578063b3d369361461036e578063ba3c90461461026f578063c28fea5e1461021e578063c80aa4e6146101f4578063dd694202146101d8578063eff73206146101875763f2fde38b14610158575f80fd5b3461018357602036600319011261018357610181610174610fc6565b61017c6111ba565b611149565b005b5f80fd5b34610183576020366003190112610183576004355f526035602052608060405f2080549060018101549060ff6003600283015492015416916040519384526020840152604083015215156060820152f35b34610183575f3660031901126101835760206040516101008152f35b34610183576020366003190112610183576004355f526033602052602060405f2054604051908152f35b34610183576020366003190112610183576004355f526031602052608060405f2080549060018101549060ff6003600283015492015416916040519384526020840152604083015215156060820152f35b3461018357604036600319011261018357600435602435335f52603260205260ff60405f205416158061034d575b61033a57600a82101561032757815f52603160205260405f20600281019182546001810180911161031357600383827f2639760fd75595d1bf47e0c0037bd2061f1f909217ee9845ce10d0cf57e4867a9688604097558560018401555501600160ff1982541617905582519182526020820152a2005b634e487b7160e01b5f52601160045260245ffd5b50632dfe2ff360e01b5f5260045260245ffd5b632dfe2ff360e01b5f525f60045260245ffd5b505f805160206113d2833981519152546001600160a01b031633141561029d565b34610183576020366003190112610183576001600160a01b0361038f610fc6565b165f526032602052602060ff60405f2054166040519015158152f35b34610183576060366003190112610183576004356001600160401b038111610183576103db90369060040161103b565b906024356001600160401b038111610183576103fb90369060040161103b565b90916044356001600160401b0381116101835761041c90369060040161103b565b9094838114801590610587575b61056d5760ff6037541615801561057c575b61056d57936104498561111e565b93610457604051958661109a565b8585526104638661111e565b602086019290601f190136843736859003601e1901925f5b888110156105275761048e8185856110fa565b355f52603160205260ff600360405f2001541615610513576104b18185856110fa565b35908060051b88013586811215610183578801918235926001600160401b03841161018357602001908336038213610183576001936104fd926104f68f8c87916110fa565b3592611354565b610507828b611135565b90151590525b0161047b565b805f6105216001938b611135565b5261050d565b8188604051918291602083019060208452518091526040830191905f5b818110610552575050500390f35b82511515845285945060209384019390920191600101610544565b63512509d360e11b5f5260045ffd5b50603654811161043b565b5081811415610429565b34610183575f366003190112610183576020604051600a8152f35b34610183576040366003190112610183576105c5610fc6565b6024356001600160401b038111610183576105e490369060040161103b565b5f805160206113f28339815191529291925460ff8160401c1615926001600160401b03821680159081610919575b600114908161090f575b159081610906575b506108f75767ffffffffffffffff1982166001175f805160206113f28339815191525561066291846108cb575b5061065a6113a6565b61017c6113a6565b61066a6113a6565b6106726113a6565b60017f9b779b17422d0df92223018b32b4d1fa46e071723d6817e2486d003becc55f00555f5b81811061088e5782600a603655600160ff1960375416176037556107316040516106c18161106b565b600281526003602082016103e88152604083017f9dfca1a7b251e6592803cad46161de8386edfd55d8f44130044c37ce95f63a92815260608401915f83525f8052603560205260405f209451855551600185015551600284015551151591019060ff801983541691151516179055565b6107b16040516107408161106b565b600381526003602082016105dc8152604083017fb883c4adc52a623b82d3c0df67dd1cbe5993fbe2b6e2ef5cfdd8de98d027258a815260608401915f835260015f52603560205260405f209451855551600185015551600284015551151591019060ff801983541691151516179055565b6108316040516107c08161106b565b600281526003602082016103208152604083017f311bfbdfd9adb69c001f209462b17faa652e66de3d70f436aed52454bdbe6abc815260608401915f835260025f52603560205260405f209451855551600185015551600284015551151591019060ff801983541691151516179055565b61083757005b68ff0000000000000000195f805160206113f283398151915254165f805160206113f2833981519152557fc7f505b2f371ae2175ee4913f4499e1f2633a7b5936321eed1cdaeb6115181d2602060405160018152a1005b6108998183866110fa565b356001600160a01b0381169190829003610183576001915f52603260205260405f208260ff1982541617905501610698565b68ffffffffffffffffff191668010000000000000001175f805160206113f28339815191525585610651565b63f92ee8a960e01b5f5260045ffd5b90501586610624565b303b15915061061c565b859150610612565b346101835760203660031901126101835761093a6110d6565b506004355f526031602052608060405f206040516109578161106b565b815491828252600181015460208301908152606060ff600360028501549460408701958652015416930192151583526040519384525160208401525160408301525115156060820152f35b34610183575f366003190112610183575f805160206113d2833981519152546040516001600160a01b039091168152602090f35b3461018357604036600319011261018357602435801515809103610183576109fc6111ba565b60043560365560ff8019603754169116176037555f80f35b34610183575f36600319011261018357610a2c6111ba565b5f805160206113d283398151915280546001600160a01b031981169091555f906001600160a01b03167f8be0079c531659141344cd1fd0a4f28419497f9722a3daafe3b4186f6b6457e08280a3005b34610183576020366003190112610183576004355f908152603360209081526040808320546034909252909120548115919082610b0157808203928284116103135760648402938404606414828414171561031357610aed578160609304905b60405192835260208301526040820152f35b634e487b7160e01b5f52601260045260245ffd5b606092505f90610adb565b34610183575f36600319011261018357604060365460ff60375416825191825215156020820152f35b34610183575f36600319011261018357610b4d6111ba565b5f5b600a8110610b5957005b806001915f52603160205260ff600360405f20015416610b7a575b01610b4f565b805f526031602052600360405f200160ff198154169055610b74565b34610183575f366003190112610183576020604051818152f35b3461018357602036600319011261018357600435335f52603260205260ff60405f2054161580610c4b575b61033a57600a811015610c39575f81815260316020908152604080832060038101805460ff19169055600201548151938452918301919091527f2639760fd75595d1bf47e0c0037bd2061f1f909217ee9845ce10d0cf57e4867a91a2005b632dfe2ff360e01b5f5260045260245ffd5b505f805160206113d2833981519152546001600160a01b0316331415610bdb565b3461018357602036600319011261018357610c85610fc6565b610c8d6111ba565b6001600160a01b03165f908152603260205260409020805460ff19169055005b34610183576020366003190112610183576004355f526034602052602060405f2054604051908152f35b34610183576060366003190112610183576004356001600160401b03811161018357610d07903690600401610fdc565b90602435906001600160a01b03821682036101835760025f5260316020527ffb9feb74501e96beb2d195bd0910662353de54e480318deb11ade8d3a9b63bb05460ff1615610d9c57602092610d9292604051858101916bffffffffffffffffffffffff199060601b168252604435603482015260348152610d8960548261109a565b51902091611311565b6040519015158152f35b632dfe2ff360e01b5f52600260045260245ffd5b3461018357610dbe36611009565b5f805260316020527f346dc135129bcc5b8e8f6ff902940f16dc0729d02b27118b912aa326da88b8345491929160ff161561033a57602092610d92926112cf565b3461018357610e0d36611009565b60015f5260316020527f5a0d0529054d565633ef4193225b544b77141410ca1c07d2069a52348de8eb6c5491929160ff1615610e4f57602092610d92926111ed565b632dfe2ff360e01b5f52600160045260245ffd5b3461018357602036600319011261018357610e7c6110d6565b506004355f526035602052608060405f206040516109578161106b565b3461018357608036600319011261018357600435335f52603260205260ff60405f2054161580610f03575b61033a57600a811015610c39575f526035602052600360405f2060243581556044356001820155606435600282015501600160ff198254161790555f80f35b505f805160206113d2833981519152546001600160a01b0316331415610ec4565b3461018357602036600319011261018357610f3d610fc6565b610f456111ba565b6001600160a01b03165f908152603260205260409020805460ff19166001179055005b34610183575f366003190112610183576040805190610f87818361109a565b600582526020820191640312e302e360dc1b83528151928391602083525180918160208501528484015e5f828201840152601f01601f19168101030190f35b600435906001600160a01b038216820361018357565b9181601f84011215610183578235916001600160401b038311610183576020838186019501011161018357565b604060031982011261018357600435906001600160401b0382116101835761103391600401610fdc565b909160243590565b9181601f84011215610183578235916001600160401b038311610183576020808501948460051b01011161018357565b608081019081106001600160401b0382111761108657604052565b634e487b7160e01b5f52604160045260245ffd5b90601f801991011681019081106001600160401b0382111761108657604052565b6001600160401b03811161108657601f01601f191660200190565b604051906110e38261106b565b5f6060838281528260208201528260408201520152565b919081101561110a5760051b0190565b634e487b7160e01b5f52603260045260245ffd5b6001600160401b0381116110865760051b60200190565b805182101561110a5760209160051b010190565b6001600160a01b031680156111a7575f805160206113d283398151915280546001600160a01b0319811683179091556001600160a01b03167f8be0079c531659141344cd1fd0a4f28419497f9722a3daafe3b4186f6b6457e05f80a3565b631e4fbdf760e01b5f525f60045260245ffd5b5f805160206113d2833981519152546001600160a01b031633036111da57565b63118cdaa760e01b5f523360045260245ffd5b9061010081036112c85760015f526031602052604051917f5a0d0529054d565633ef4193225b544b77141410ca1c07d2069a52348de8eb6991906112308461106b565b8254845260ff6003600185015494602087019586526002810154604088015201541615801560608601526112bf57611267826110bb565b94611275604051968761109a565b828652602086013684840111610183576112bc965f6020866112b79760609786378301015251902093519060405191602083015260408201526040815261109a565b611381565b90565b50505050505f90565b5050505f90565b9061010081036112c8575f80526031602052604051917f346dc135129bcc5b8e8f6ff902940f16dc0729d02b27118b912aa326da88b83191906112308461106b565b9061010081036112c85760025f526031602052604051917ffb9feb74501e96beb2d195bd0910662353de54e480318deb11ade8d3a9b63bad91906112308461106b565b9190916101008203611379575f52603160205260405f2090604051926112308461106b565b505050505f90565b9081156113a057602001511561139b576064605f91061090565b505f90565b50505f90565b60ff5f805160206113f28339815191525460401c16156113c257565b631afcd79f60e31b5f5260045ffdfe9016d09d72d40fdae2fd8ceac6b6234c7706214fd39c1cd1e609a0528c199300f0c57e16840df040f15088dc2f81fe391c3923bec73e23a9662efc9c229c6a00","linkReferences":{}},"methodIdentifiers":{"EXPECTED_PROOF_SIZE()":"dd694202","MAX_PROOF_TYPES()":"99573793","PROOF_ELEMENT_SIZE()":"6142af8b","addKeyManager(address)":"1e2a372d","batchConfig()":"6d451298","batchVerifyProofs(bytes[],uint256[],bytes32[])":"a117b69a","circuitParams(uint256)":"eff73206","deactivateVerificationKey(uint256)":"5acefbf4","failedVerificationCounts(uint256)":"5960f634","getCircuitParams(uint256)":"34c9d2f6","getVerificationKey(uint256)":"9468f7e6","getVerificationStats(uint256)":"6fc8cfcf","getVersion()":"0d8e6e2c","initialize(address,address[])":"946d9204","isKeyManager(address)":"17b52af2","keyManagers(address)":"b3d36936","owner()":"8da5cb5b","pauseAllVerifications()":"61b307fd","removeKeyManager(address)":"59df8f9f","renounceOwnership()":"715018a6","transferOwnership(address)":"f2fde38b","updateBatchConfig(uint256,bool)":"8a94b59b","updateCircuitParams(uint256,uint256,uint256,bytes32)":"20a7ce13","updateVerificationKey(uint256,bytes32)":"ba3c9046","verificationCounts(uint256)":"c80aa4e6","verificationKeys(uint256)":"c28fea5e","verifyEmergencyProof(bytes,bytes32)":"3e7429c8","verifyExecutionAuthorization(bytes,address,bytes32)":"54ea50da","verifyGuardianIdentity(bytes,bytes32)":"40bfabdf"},"id":54}