{"abi":[{"type":"function","name":"batchVerifyProofs","inputs":[{"name":"proofs","type":"bytes[]","internalType":"bytes[]"},{"name":"","type":"uint256[]","internalType":"uint256[]"},{"name":"","type":"bytes32[]","internalType":"bytes32[]"}],"outputs":[{"name":"results","type":"bool[]","internalType":"bool[]"}],"stateMutability":"view"},{"type":"function","name":"getVerificationKey","inputs":[{"name":"proofType","type":"uint256","internalType":"uint256"}],"outputs":[{"name":"vk","type":"tuple","internalType":"struct IZKProofVerifier.VerificationKey","components":[{"name":"proofType","type":"uint256","internalType":"uint256"},{"name":"vkHash","type":"bytes32","internalType":"bytes32"},{"name":"version","type":"uint256","internalType":"uint256"},{"name":"active","type":"bool","internalType":"bool"}]}],"stateMutability":"view"},{"type":"function","name":"setVerificationResult","inputs":[{"name":"result","type":"bool","internalType":"bool"}],"outputs":[],"stateMutability":"nonpayable"},{"type":"function","name":"updateVerificationKey","inputs":[{"name":"proofType","type":"uint256","internalType":"uint256"},{"name":"vkHash","type":"bytes32","internalType":"bytes32"}],"outputs":[],"stateMutability":"nonpayable"},{"type":"function","name":"verificationKeys","inputs":[{"name":"","type":"uint256","internalType":"uint256"}],"outputs":[{"name":"proofType","type":"uint256","internalType":"uint256"},{"name":"vkHash","type":"bytes32","internalType":"bytes32"},{"name":"version","type":"uint256","internalType":"uint256"},{"name":"active","type":"bool","internalType":"bool"}],"stateMutability":"view"},{"type":"function","name":"verifyEmergencyProof","inputs":[{"name":"","type":"bytes","internalType":"bytes"},{"name":"","type":"bytes32","internalType":"bytes32"}],"outputs":[{"name":"isValid","type":"bool","internalType":"bool"}],"stateMutability":"view"},{"type":"function","name":"verifyExecutionAuthorization","inputs":[{"name":"","type":"bytes","internalType":"bytes"},{"name":"","type":"address","internalType":"address"},{"name":"","type":"bytes32","internalType":"bytes32"}],"outputs":[{"name":"isValid","type":"bool","internalType":"bool"}],"stateMutability":"view"},{"type":"function","name":"verifyGuardianIdentity","inputs":[{"name":"","type":"bytes","internalType":"bytes"},{"name":"","type":"bytes32","internalType":"bytes32"}],"outputs":[{"name":"isValid","type":"bool","internalType":"bool"}],"stateMutability":"view"},{"type":"event","name":"ProofVerified","inputs":[{"name":"proofType","type":"uint256","indexed":true,"internalType":"uint256"},{"name":"publicInputHash","type":"bytes32","indexed":false,"internalType":"bytes32"},{"name":"result","type":"bool","indexed":false,"internalType":"bool"}],"anonymous":false},{"type":"event","name":"VerificationKeyUpdated","inputs":[{"name":"proofType","type":"uint256","indexed":true,"internalType":"uint256"},{"name":"vkHash","type":"bytes32","indexed":false,"internalType":"bytes32"},{"name":"version","type":"uint256","indexed":false,"internalType":"uint256"}],"anonymous":false},{"type":"error","name":"ArrayLengthMismatch","inputs":[]},{"type":"error","name":"InvalidProof","inputs":[{"name":"proofType","type":"uint256","internalType":"uint256"},{"name":"publicInputHash","type":"bytes32","internalType":"bytes32"}]},{"type":"error","name":"InvalidVerificationKey","inputs":[{"name":"proofType","type":"uint256","internalType":"uint256"}]}],"bytecode":{"object":"0x60808060405234602157600160ff19815416176001556104af90816100268239f35b5f80fdfe60806040526004361015610011575f80fd5b5f3560e01c80633e7429c8146103cd57806340bfabdf146103cd57806354ea50da146103765780639468f7e6146102e7578063a117b69a1461018e578063ba3c9046146100f5578063c28fea5e146100a55763e064c12f14610071575f80fd5b346100a15760203660031901126100a1576004358015158091036100a15760ff8019600154169116176001555f80f35b5f80fd5b346100a15760203660031901126100a1576004355f525f602052608060405f2080549060018101549060ff6003600283015492015416916040519384526020840152604083015215156060820152f35b346100a15760403660031901126100a1576004357f2639760fd75595d1bf47e0c0037bd2061f1f909217ee9845ce10d0cf57e4867a6040602435610137610477565b8481526003602082019183835284810160018152606082019360018552885f525f602052865f2092518355516001830155516002820155019051151560ff80198354169116179055815190815260016020820152a2005b346100a15760603660031901126100a15760043567ffffffffffffffff81116100a1576101bf903690600401610446565b905060243567ffffffffffffffff81116100a1576101e1903690600401610446565b505060443567ffffffffffffffff81116100a157610203903690600401610446565b505061020e81610497565b6040519190601f01601f1916820167ffffffffffffffff8111838210176102d35760405280825261023e81610497565b602083019190601f190136833760015460ff1615155f5b8281106102a2578385604051918291602083019060208452518091526040830191905f5b818110610287575050500390f35b82511515845285945060209384019390920191600101610279565b84518110156102bf578082602060019360051b8801015201610255565b634e487b7160e01b5f52603260045260245ffd5b634e487b7160e01b5f52604160045260245ffd5b346100a15760203660031901126100a1575f6060610303610477565b82815282602082015282604082015201526004355f525f602052608060405f2061032b610477565b815491828252600181015460208301908152606060ff600360028501549460408701958652015416930192151583526040519384525160208401525160408301525115156060820152f35b346100a15760603660031901126100a15760043567ffffffffffffffff81116100a1576103a79036906004016103d2565b50506024356001600160a01b038116036100a157602060ff600154166040519015158152f35b610400565b9181601f840112156100a15782359167ffffffffffffffff83116100a157602083818601950101116100a157565b346100a15760403660031901126100a15760043567ffffffffffffffff81116100a1576104319036906004016103d2565b905050602060ff600154166040519015158152f35b9181601f840112156100a15782359167ffffffffffffffff83116100a1576020808501948460051b0101116100a157565b604051906080820182811067ffffffffffffffff8211176102d357604052565b67ffffffffffffffff81116102d35760051b6020019056","linkReferences":{}},"methodIdentifiers":{"batchVerifyProofs(bytes[],uint256[],bytes32[])":"a117b69a","getVerificationKey(uint256)":"9468f7e6","setVerificationResult(bool)":"e064c12f","updateVerificationKey(uint256,bytes32)":"ba3c9046","verificationKeys(uint256)":"c28fea5e","verifyEmergencyProof(bytes,bytes32)":"3e7429c8","verifyExecutionAuthorization(bytes,address,bytes32)":"54ea50da","verifyGuardianIdentity(bytes,bytes32)":"40bfabdf"},"id":62}